{
  "abi": [
    {
      "inputs": [
        {
          "internalType": "uint256",
          "name": "minimum",
          "type": "uint256"
        },
        {
          "internalType": "address",
          "name": "creator",
          "type": "address"
        }
      ],
      "stateMutability": "nonpayable",
      "type": "constructor"
    },
    {
      "inputs": [
        {
          "internalType": "uint256",
          "name": "index",
          "type": "uint256"
        }
      ],
      "name": "approveRequest",
      "outputs": [],
      "stateMutability": "nonpayable",
      "type": "function"
    },
    {
      "inputs": [
        {
          "internalType": "address",
          "name": "",
          "type": "address"
        }
      ],
      "name": "approvers",
      "outputs": [
        {
          "internalType": "bool",
          "name": "",
          "type": "bool"
        }
      ],
      "stateMutability": "view",
      "type": "function"
    },
    {
      "inputs": [],
      "name": "approversCount",
      "outputs": [
        {
          "internalType": "uint256",
          "name": "",
          "type": "uint256"
        }
      ],
      "stateMutability": "view",
      "type": "function"
    },
    {
      "inputs": [],
      "name": "contribute",
      "outputs": [],
      "stateMutability": "payable",
      "type": "function"
    },
    {
      "inputs": [
        {
          "internalType": "string",
          "name": "description",
          "type": "string"
        },
        {
          "internalType": "uint256",
          "name": "value",
          "type": "uint256"
        },
        {
          "internalType": "address payable",
          "name": "recipient",
          "type": "address"
        }
      ],
      "name": "createRequest",
      "outputs": [],
      "stateMutability": "nonpayable",
      "type": "function"
    },
    {
      "inputs": [
        {
          "internalType": "uint256",
          "name": "index",
          "type": "uint256"
        }
      ],
      "name": "finalizeRequest",
      "outputs": [],
      "stateMutability": "nonpayable",
      "type": "function"
    },
    {
      "inputs": [],
      "name": "getRequestsCount",
      "outputs": [
        {
          "internalType": "uint256",
          "name": "",
          "type": "uint256"
        }
      ],
      "stateMutability": "view",
      "type": "function"
    },
    {
      "inputs": [],
      "name": "getSummary",
      "outputs": [
        {
          "internalType": "uint256",
          "name": "",
          "type": "uint256"
        },
        {
          "internalType": "uint256",
          "name": "",
          "type": "uint256"
        },
        {
          "internalType": "uint256",
          "name": "",
          "type": "uint256"
        },
        {
          "internalType": "uint256",
          "name": "",
          "type": "uint256"
        },
        {
          "internalType": "address",
          "name": "",
          "type": "address"
        }
      ],
      "stateMutability": "view",
      "type": "function"
    },
    {
      "inputs": [],
      "name": "manager",
      "outputs": [
        {
          "internalType": "address",
          "name": "",
          "type": "address"
        }
      ],
      "stateMutability": "view",
      "type": "function"
    },
    {
      "inputs": [],
      "name": "minimumContribution",
      "outputs": [
        {
          "internalType": "uint256",
          "name": "",
          "type": "uint256"
        }
      ],
      "stateMutability": "view",
      "type": "function"
    },
    {
      "inputs": [
        {
          "internalType": "uint256",
          "name": "",
          "type": "uint256"
        }
      ],
      "name": "requests",
      "outputs": [
        {
          "internalType": "string",
          "name": "description",
          "type": "string"
        },
        {
          "internalType": "uint256",
          "name": "value",
          "type": "uint256"
        },
        {
          "internalType": "address payable",
          "name": "recipient",
          "type": "address"
        },
        {
          "internalType": "bool",
          "name": "complete",
          "type": "bool"
        },
        {
          "internalType": "uint256",
          "name": "approvalCount",
          "type": "uint256"
        }
      ],
      "stateMutability": "view",
      "type": "function"
    }
  ],
  "devdoc": {
    "kind": "dev",
    "methods": {},
    "version": 1
  },
  "evm": {
    "assembly": "    /* \"Campaign.sol\":436:3146  contract Campaign {... */\n  mstore(0x40, 0x80)\n    /* \"Campaign.sol\":1502:1619  constructor (uint minimum, address creator) {... */\n  callvalue\n  dup1\n  iszero\n  tag_1\n  jumpi\n  0x00\n  dup1\n  revert\ntag_1:\n  pop\n  mload(0x40)\n  sub(codesize, bytecodeSize)\n  dup1\n  bytecodeSize\n  dup4\n  codecopy\n  dup2\n  dup2\n  add\n  0x40\n  mstore\n  dup2\n  add\n  swap1\n  tag_2\n  swap2\n  swap1\n  tag_3\n  jump\t// in\ntag_2:\n    /* \"Campaign.sol\":1566:1573  creator */\n  dup1\n    /* \"Campaign.sol\":1556:1563  manager */\n  0x01\n  0x00\n    /* \"Campaign.sol\":1556:1573  manager = creator */\n  0x0100\n  exp\n  dup2\n  sload\n  dup2\n  0xffffffffffffffffffffffffffffffffffffffff\n  mul\n  not\n  and\n  swap1\n  dup4\n  0xffffffffffffffffffffffffffffffffffffffff\n  and\n  mul\n  or\n  swap1\n  sstore\n  pop\n    /* \"Campaign.sol\":1605:1612  minimum */\n  dup2\n    /* \"Campaign.sol\":1583:1602  minimumContribution */\n  0x02\n    /* \"Campaign.sol\":1583:1612  minimumContribution = minimum */\n  dup2\n  swap1\n  sstore\n  pop\n    /* \"Campaign.sol\":1502:1619  constructor (uint minimum, address creator) {... */\n  pop\n  pop\n    /* \"Campaign.sol\":436:3146  contract Campaign {... */\n  jump(tag_6)\n    /* \"#utility.yul\":88:205   */\ntag_8:\n    /* \"#utility.yul\":197:198   */\n  0x00\n    /* \"#utility.yul\":194:195   */\n  dup1\n    /* \"#utility.yul\":187:199   */\n  revert\n    /* \"#utility.yul\":334:411   */\ntag_10:\n    /* \"#utility.yul\":371:378   */\n  0x00\n    /* \"#utility.yul\":400:405   */\n  dup2\n    /* \"#utility.yul\":389:405   */\n  swap1\n  pop\n    /* \"#utility.yul\":334:411   */\n  swap2\n  swap1\n  pop\n  jump\t// out\n    /* \"#utility.yul\":417:539   */\ntag_11:\n    /* \"#utility.yul\":490:514   */\n  tag_23\n    /* \"#utility.yul\":508:513   */\n  dup2\n    /* \"#utility.yul\":490:514   */\n  tag_10\n  jump\t// in\ntag_23:\n    /* \"#utility.yul\":483:488   */\n  dup2\n    /* \"#utility.yul\":480:515   */\n  eq\n    /* \"#utility.yul\":470:533   */\n  tag_24\n  jumpi\n    /* \"#utility.yul\":529:530   */\n  0x00\n    /* \"#utility.yul\":526:527   */\n  dup1\n    /* \"#utility.yul\":519:531   */\n  revert\n    /* \"#utility.yul\":470:533   */\ntag_24:\n    /* \"#utility.yul\":417:539   */\n  pop\n  jump\t// out\n    /* \"#utility.yul\":545:688   */\ntag_12:\n    /* \"#utility.yul\":602:607   */\n  0x00\n    /* \"#utility.yul\":633:639   */\n  dup2\n    /* \"#utility.yul\":627:640   */\n  mload\n    /* \"#utility.yul\":618:640   */\n  swap1\n  pop\n    /* \"#utility.yul\":649:682   */\n  tag_26\n    /* \"#utility.yul\":676:681   */\n  dup2\n    /* \"#utility.yul\":649:682   */\n  tag_11\n  jump\t// in\ntag_26:\n    /* \"#utility.yul\":545:688   */\n  swap3\n  swap2\n  pop\n  pop\n  jump\t// out\n    /* \"#utility.yul\":694:820   */\ntag_13:\n    /* \"#utility.yul\":731:738   */\n  0x00\n    /* \"#utility.yul\":771:813   */\n  0xffffffffffffffffffffffffffffffffffffffff\n    /* \"#utility.yul\":764:769   */\n  dup3\n    /* \"#utility.yul\":760:814   */\n  and\n    /* \"#utility.yul\":749:814   */\n  swap1\n  pop\n    /* \"#utility.yul\":694:820   */\n  swap2\n  swap1\n  pop\n  jump\t// out\n    /* \"#utility.yul\":826:922   */\ntag_14:\n    /* \"#utility.yul\":863:870   */\n  0x00\n    /* \"#utility.yul\":892:916   */\n  tag_29\n    /* \"#utility.yul\":910:915   */\n  dup3\n    /* \"#utility.yul\":892:916   */\n  tag_13\n  jump\t// in\ntag_29:\n    /* \"#utility.yul\":881:916   */\n  swap1\n  pop\n    /* \"#utility.yul\":826:922   */\n  swap2\n  swap1\n  pop\n  jump\t// out\n    /* \"#utility.yul\":928:1050   */\ntag_15:\n    /* \"#utility.yul\":1001:1025   */\n  tag_31\n    /* \"#utility.yul\":1019:1024   */\n  dup2\n    /* \"#utility.yul\":1001:1025   */\n  tag_14\n  jump\t// in\ntag_31:\n    /* \"#utility.yul\":994:999   */\n  dup2\n    /* \"#utility.yul\":991:1026   */\n  eq\n    /* \"#utility.yul\":981:1044   */\n  tag_32\n  jumpi\n    /* \"#utility.yul\":1040:1041   */\n  0x00\n    /* \"#utility.yul\":1037:1038   */\n  dup1\n    /* \"#utility.yul\":1030:1042   */\n  revert\n    /* \"#utility.yul\":981:1044   */\ntag_32:\n    /* \"#utility.yul\":928:1050   */\n  pop\n  jump\t// out\n    /* \"#utility.yul\":1056:1199   */\ntag_16:\n    /* \"#utility.yul\":1113:1118   */\n  0x00\n    /* \"#utility.yul\":1144:1150   */\n  dup2\n    /* \"#utility.yul\":1138:1151   */\n  mload\n    /* \"#utility.yul\":1129:1151   */\n  swap1\n  pop\n    /* \"#utility.yul\":1160:1193   */\n  tag_34\n    /* \"#utility.yul\":1187:1192   */\n  dup2\n    /* \"#utility.yul\":1160:1193   */\n  tag_15\n  jump\t// in\ntag_34:\n    /* \"#utility.yul\":1056:1199   */\n  swap3\n  swap2\n  pop\n  pop\n  jump\t// out\n    /* \"#utility.yul\":1205:1712   */\ntag_3:\n    /* \"#utility.yul\":1284:1290   */\n  0x00\n    /* \"#utility.yul\":1292:1298   */\n  dup1\n    /* \"#utility.yul\":1341:1343   */\n  0x40\n    /* \"#utility.yul\":1329:1338   */\n  dup4\n    /* \"#utility.yul\":1320:1327   */\n  dup6\n    /* \"#utility.yul\":1316:1339   */\n  sub\n    /* \"#utility.yul\":1312:1344   */\n  slt\n    /* \"#utility.yul\":1309:1428   */\n  iszero\n  tag_36\n  jumpi\n    /* \"#utility.yul\":1347:1426   */\n  tag_37\n  tag_8\n  jump\t// in\ntag_37:\n    /* \"#utility.yul\":1309:1428   */\ntag_36:\n    /* \"#utility.yul\":1467:1468   */\n  0x00\n    /* \"#utility.yul\":1492:1556   */\n  tag_38\n    /* \"#utility.yul\":1548:1555   */\n  dup6\n    /* \"#utility.yul\":1539:1545   */\n  dup3\n    /* \"#utility.yul\":1528:1537   */\n  dup7\n    /* \"#utility.yul\":1524:1546   */\n  add\n    /* \"#utility.yul\":1492:1556   */\n  tag_12\n  jump\t// in\ntag_38:\n    /* \"#utility.yul\":1482:1556   */\n  swap3\n  pop\n    /* \"#utility.yul\":1438:1566   */\n  pop\n    /* \"#utility.yul\":1605:1607   */\n  0x20\n    /* \"#utility.yul\":1631:1695   */\n  tag_39\n    /* \"#utility.yul\":1687:1694   */\n  dup6\n    /* \"#utility.yul\":1678:1684   */\n  dup3\n    /* \"#utility.yul\":1667:1676   */\n  dup7\n    /* \"#utility.yul\":1663:1685   */\n  add\n    /* \"#utility.yul\":1631:1695   */\n  tag_16\n  jump\t// in\ntag_39:\n    /* \"#utility.yul\":1621:1695   */\n  swap2\n  pop\n    /* \"#utility.yul\":1576:1705   */\n  pop\n    /* \"#utility.yul\":1205:1712   */\n  swap3\n  pop\n  swap3\n  swap1\n  pop\n  jump\t// out\n    /* \"Campaign.sol\":436:3146  contract Campaign {... */\ntag_6:\n  dataSize(sub_0)\n  dup1\n  dataOffset(sub_0)\n  0x00\n  codecopy\n  0x00\n  return\nstop\n\nsub_0: assembly {\n        /* \"Campaign.sol\":436:3146  contract Campaign {... */\n      mstore(0x40, 0x80)\n      jumpi(tag_1, lt(calldatasize, 0x04))\n      shr(0xe0, calldataload(0x00))\n      dup1\n      0x81d12c58\n      gt\n      tag_13\n      jumpi\n      dup1\n      0x81d12c58\n      eq\n      tag_7\n      jumpi\n      dup1\n      0x82fde093\n      eq\n      tag_8\n      jumpi\n      dup1\n      0x8a9cfd55\n      eq\n      tag_9\n      jumpi\n      dup1\n      0x937e09b1\n      eq\n      tag_10\n      jumpi\n      dup1\n      0xd7bb99ba\n      eq\n      tag_11\n      jumpi\n      dup1\n      0xd7d1bbdb\n      eq\n      tag_12\n      jumpi\n      jump(tag_1)\n    tag_13:\n      dup1\n      0x03441006\n      eq\n      tag_2\n      jumpi\n      dup1\n      0x0a144391\n      eq\n      tag_3\n      jumpi\n      dup1\n      0x3410452a\n      eq\n      tag_4\n      jumpi\n      dup1\n      0x4051ddac\n      eq\n      tag_5\n      jumpi\n      dup1\n      0x481c6a75\n      eq\n      tag_6\n      jumpi\n    tag_1:\n      0x00\n      dup1\n      revert\n        /* \"Campaign.sol\":2470:2768  function finalizeRequest(uint index) public restricted {... */\n    tag_2:\n      callvalue\n      dup1\n      iszero\n      tag_14\n      jumpi\n      0x00\n      dup1\n      revert\n    tag_14:\n      pop\n      tag_15\n      0x04\n      dup1\n      calldatasize\n      sub\n      dup2\n      add\n      swap1\n      tag_16\n      swap2\n      swap1\n      tag_17\n      jump\t// in\n    tag_16:\n      tag_18\n      jump\t// in\n    tag_15:\n      stop\n        /* \"Campaign.sol\":1272:1313  mapping(address => bool) public approvers */\n    tag_3:\n      callvalue\n      dup1\n      iszero\n      tag_19\n      jumpi\n      0x00\n      dup1\n      revert\n    tag_19:\n      pop\n      tag_20\n      0x04\n      dup1\n      calldatasize\n      sub\n      dup2\n      add\n      swap1\n      tag_21\n      swap2\n      swap1\n      tag_22\n      jump\t// in\n    tag_21:\n      tag_23\n      jump\t// in\n    tag_20:\n      mload(0x40)\n      tag_24\n      swap2\n      swap1\n      tag_25\n      jump\t// in\n    tag_24:\n      mload(0x40)\n      dup1\n      swap2\n      sub\n      swap1\n      return\n        /* \"Campaign.sol\":3049:3143  function getRequestsCount() public view returns (uint) {... */\n    tag_4:\n      callvalue\n      dup1\n      iszero\n      tag_26\n      jumpi\n      0x00\n      dup1\n      revert\n    tag_26:\n      pop\n      tag_27\n      tag_28\n      jump\t// in\n    tag_27:\n      mload(0x40)\n      tag_29\n      swap2\n      swap1\n      tag_30\n      jump\t// in\n    tag_29:\n      mload(0x40)\n      dup1\n      swap2\n      sub\n      swap1\n      return\n        /* \"Campaign.sol\":2774:3043  function getSummary() public view returns(... */\n    tag_5:\n      callvalue\n      dup1\n      iszero\n      tag_31\n      jumpi\n      0x00\n      dup1\n      revert\n    tag_31:\n      pop\n      tag_32\n      tag_33\n      jump\t// in\n    tag_32:\n      mload(0x40)\n      tag_34\n      swap6\n      swap5\n      swap4\n      swap3\n      swap2\n      swap1\n      tag_35\n      jump\t// in\n    tag_34:\n      mload(0x40)\n      dup1\n      swap2\n      sub\n      swap1\n      return\n        /* \"Campaign.sol\":1031:1053  address public manager */\n    tag_6:\n      callvalue\n      dup1\n      iszero\n      tag_36\n      jumpi\n      0x00\n      dup1\n      revert\n    tag_36:\n      pop\n      tag_37\n      tag_38\n      jump\t// in\n    tag_37:\n      mload(0x40)\n      tag_39\n      swap2\n      swap1\n      tag_40\n      jump\t// in\n    tag_39:\n      mload(0x40)\n      dup1\n      swap2\n      sub\n      swap1\n      return\n        /* \"Campaign.sol\":964:989  Request[] public requests */\n    tag_7:\n      callvalue\n      dup1\n      iszero\n      tag_41\n      jumpi\n      0x00\n      dup1\n      revert\n    tag_41:\n      pop\n      tag_42\n      0x04\n      dup1\n      calldatasize\n      sub\n      dup2\n      add\n      swap1\n      tag_43\n      swap2\n      swap1\n      tag_17\n      jump\t// in\n    tag_43:\n      tag_44\n      jump\t// in\n    tag_42:\n      mload(0x40)\n      tag_45\n      swap6\n      swap5\n      swap4\n      swap3\n      swap2\n      swap1\n      tag_46\n      jump\t// in\n    tag_45:\n      mload(0x40)\n      dup1\n      swap2\n      sub\n      swap1\n      return\n        /* \"Campaign.sol\":1319:1345  uint public approversCount */\n    tag_8:\n      callvalue\n      dup1\n      iszero\n      tag_47\n      jumpi\n      0x00\n      dup1\n      revert\n    tag_47:\n      pop\n      tag_48\n      tag_49\n      jump\t// in\n    tag_48:\n      mload(0x40)\n      tag_50\n      swap2\n      swap1\n      tag_30\n      jump\t// in\n    tag_50:\n      mload(0x40)\n      dup1\n      swap2\n      sub\n      swap1\n      return\n        /* \"Campaign.sol\":1876:2187  function createRequest(string memory description, uint value, address payable recipient) public restricted {... */\n    tag_9:\n      callvalue\n      dup1\n      iszero\n      tag_51\n      jumpi\n      0x00\n      dup1\n      revert\n    tag_51:\n      pop\n      tag_52\n      0x04\n      dup1\n      calldatasize\n      sub\n      dup2\n      add\n      swap1\n      tag_53\n      swap2\n      swap1\n      tag_54\n      jump\t// in\n    tag_53:\n      tag_55\n      jump\t// in\n    tag_52:\n      stop\n        /* \"Campaign.sol\":1124:1155  uint public minimumContribution */\n    tag_10:\n      callvalue\n      dup1\n      iszero\n      tag_56\n      jumpi\n      0x00\n      dup1\n      revert\n    tag_56:\n      pop\n      tag_57\n      tag_58\n      jump\t// in\n    tag_57:\n      mload(0x40)\n      tag_59\n      swap2\n      swap1\n      tag_30\n      jump\t// in\n    tag_59:\n      mload(0x40)\n      dup1\n      swap2\n      sub\n      swap1\n      return\n        /* \"Campaign.sol\":1669:1828  function contribute() public payable {... */\n    tag_11:\n      tag_60\n      tag_61\n      jump\t// in\n    tag_60:\n      stop\n        /* \"Campaign.sol\":2193:2464  function approveRequest(uint index) public {... */\n    tag_12:\n      callvalue\n      dup1\n      iszero\n      tag_62\n      jumpi\n      0x00\n      dup1\n      revert\n    tag_62:\n      pop\n      tag_63\n      0x04\n      dup1\n      calldatasize\n      sub\n      dup2\n      add\n      swap1\n      tag_64\n      swap2\n      swap1\n      tag_17\n      jump\t// in\n    tag_64:\n      tag_65\n      jump\t// in\n    tag_63:\n      stop\n        /* \"Campaign.sol\":2470:2768  function finalizeRequest(uint index) public restricted {... */\n    tag_18:\n        /* \"Campaign.sol\":1470:1477  manager */\n      0x01\n      0x00\n      swap1\n      sload\n      swap1\n      0x0100\n      exp\n      swap1\n      div\n      0xffffffffffffffffffffffffffffffffffffffff\n      and\n        /* \"Campaign.sol\":1456:1477  msg.sender == manager */\n      0xffffffffffffffffffffffffffffffffffffffff\n      and\n        /* \"Campaign.sol\":1456:1466  msg.sender */\n      caller\n        /* \"Campaign.sol\":1456:1477  msg.sender == manager */\n      0xffffffffffffffffffffffffffffffffffffffff\n      and\n      eq\n        /* \"Campaign.sol\":1448:1478  require(msg.sender == manager) */\n      tag_67\n      jumpi\n      0x00\n      dup1\n      revert\n    tag_67:\n        /* \"Campaign.sol\":2535:2558  Request storage request */\n      0x00\n        /* \"Campaign.sol\":2561:2569  requests */\n      dup1\n        /* \"Campaign.sol\":2570:2575  index */\n      dup3\n        /* \"Campaign.sol\":2561:2576  requests[index] */\n      dup2\n      sload\n      dup2\n      lt\n      tag_69\n      jumpi\n      tag_70\n      tag_71\n      jump\t// in\n    tag_70:\n    tag_69:\n      swap1\n      0x00\n      mstore\n      keccak256(0x00, 0x20)\n      swap1\n      0x05\n      mul\n      add\n        /* \"Campaign.sol\":2535:2576  Request storage request = requests[index] */\n      swap1\n      pop\n        /* \"Campaign.sol\":2637:2638  2 */\n      0x02\n        /* \"Campaign.sol\":2620:2634  approversCount */\n      sload(0x04)\n        /* \"Campaign.sol\":2620:2638  approversCount / 2 */\n      tag_73\n      swap2\n      swap1\n      tag_74\n      jump\t// in\n    tag_73:\n        /* \"Campaign.sol\":2595:2602  request */\n      dup2\n        /* \"Campaign.sol\":2595:2616  request.approvalCount */\n      0x03\n      add\n      sload\n        /* \"Campaign.sol\":2595:2639  request.approvalCount > (approversCount / 2) */\n      gt\n        /* \"Campaign.sol\":2587:2640  require(request.approvalCount > (approversCount / 2)) */\n      tag_75\n      jumpi\n      0x00\n      dup1\n      revert\n    tag_75:\n        /* \"Campaign.sol\":2659:2666  request */\n      dup1\n        /* \"Campaign.sol\":2659:2675  request.complete */\n      0x02\n      add\n      0x14\n      swap1\n      sload\n      swap1\n      0x0100\n      exp\n      swap1\n      div\n      0xff\n      and\n        /* \"Campaign.sol\":2658:2675  !request.complete */\n      iszero\n        /* \"Campaign.sol\":2650:2676  require(!request.complete) */\n      tag_76\n      jumpi\n      0x00\n      dup1\n      revert\n    tag_76:\n        /* \"Campaign.sol\":2687:2694  request */\n      dup1\n        /* \"Campaign.sol\":2687:2704  request.recipient */\n      0x02\n      add\n      0x00\n      swap1\n      sload\n      swap1\n      0x0100\n      exp\n      swap1\n      div\n      0xffffffffffffffffffffffffffffffffffffffff\n      and\n        /* \"Campaign.sol\":2687:2713  request.recipient.transfer */\n      0xffffffffffffffffffffffffffffffffffffffff\n      and\n        /* \"Campaign.sol\":2687:2728  request.recipient.transfer(request.value) */\n      0x08fc\n        /* \"Campaign.sol\":2714:2721  request */\n      dup3\n        /* \"Campaign.sol\":2714:2727  request.value */\n      0x01\n      add\n      sload\n        /* \"Campaign.sol\":2687:2728  request.recipient.transfer(request.value) */\n      swap1\n      dup2\n      iszero\n      mul\n      swap1\n      mload(0x40)\n      0x00\n      mload(0x40)\n      dup1\n      dup4\n      sub\n      dup2\n      dup6\n      dup9\n      dup9\n      call\n      swap4\n      pop\n      pop\n      pop\n      pop\n      iszero\n      dup1\n      iszero\n      tag_78\n      jumpi\n      returndatasize\n      0x00\n      dup1\n      returndatacopy\n      revert(0x00, returndatasize)\n    tag_78:\n      pop\n        /* \"Campaign.sol\":2757:2761  true */\n      0x01\n        /* \"Campaign.sol\":2738:2745  request */\n      dup2\n        /* \"Campaign.sol\":2738:2754  request.complete */\n      0x02\n      add\n      0x14\n        /* \"Campaign.sol\":2738:2761  request.complete = true */\n      0x0100\n      exp\n      dup2\n      sload\n      dup2\n      0xff\n      mul\n      not\n      and\n      swap1\n      dup4\n      iszero\n      iszero\n      mul\n      or\n      swap1\n      sstore\n      pop\n        /* \"Campaign.sol\":2525:2768  {... */\n      pop\n        /* \"Campaign.sol\":2470:2768  function finalizeRequest(uint index) public restricted {... */\n      pop\n      jump\t// out\n        /* \"Campaign.sol\":1272:1313  mapping(address => bool) public approvers */\n    tag_23:\n      mstore(0x20, 0x03)\n      dup1\n      0x00\n      mstore\n      keccak256(0x00, 0x40)\n      0x00\n      swap2\n      pop\n      sload\n      swap1\n      0x0100\n      exp\n      swap1\n      div\n      0xff\n      and\n      dup2\n      jump\t// out\n        /* \"Campaign.sol\":3049:3143  function getRequestsCount() public view returns (uint) {... */\n    tag_28:\n        /* \"Campaign.sol\":3098:3102  uint */\n      0x00\n        /* \"Campaign.sol\":3121:3129  requests */\n      dup1\n        /* \"Campaign.sol\":3121:3136  requests.length */\n      dup1\n      sload\n      swap1\n      pop\n        /* \"Campaign.sol\":3114:3136  return requests.length */\n      swap1\n      pop\n        /* \"Campaign.sol\":3049:3143  function getRequestsCount() public view returns (uint) {... */\n      swap1\n      jump\t// out\n        /* \"Campaign.sol\":2774:3043  function getSummary() public view returns(... */\n    tag_33:\n        /* \"Campaign.sol\":2825:2829  uint */\n      0x00\n        /* \"Campaign.sol\":2831:2835  uint */\n      dup1\n        /* \"Campaign.sol\":2837:2841  uint */\n      0x00\n        /* \"Campaign.sol\":2843:2847  uint */\n      dup1\n        /* \"Campaign.sol\":2849:2856  address */\n      0x00\n        /* \"Campaign.sol\":2894:2913  minimumContribution */\n      sload(0x02)\n        /* \"Campaign.sol\":2927:2948  address(this).balance */\n      selfbalance\n        /* \"Campaign.sol\":2962:2970  requests */\n      0x00\n        /* \"Campaign.sol\":2962:2977  requests.length */\n      dup1\n      sload\n      swap1\n      pop\n        /* \"Campaign.sol\":2991:3005  approversCount */\n      sload(0x04)\n        /* \"Campaign.sol\":3019:3026  manager */\n      0x01\n      0x00\n      swap1\n      sload\n      swap1\n      0x0100\n      exp\n      swap1\n      div\n      0xffffffffffffffffffffffffffffffffffffffff\n      and\n        /* \"Campaign.sol\":2873:3036  return (... */\n      swap5\n      pop\n      swap5\n      pop\n      swap5\n      pop\n      swap5\n      pop\n      swap5\n      pop\n        /* \"Campaign.sol\":2774:3043  function getSummary() public view returns(... */\n      swap1\n      swap2\n      swap3\n      swap4\n      swap5\n      jump\t// out\n        /* \"Campaign.sol\":1031:1053  address public manager */\n    tag_38:\n      0x01\n      0x00\n      swap1\n      sload\n      swap1\n      0x0100\n      exp\n      swap1\n      div\n      0xffffffffffffffffffffffffffffffffffffffff\n      and\n      dup2\n      jump\t// out\n        /* \"Campaign.sol\":964:989  Request[] public requests */\n    tag_44:\n      0x00\n      dup2\n      dup2\n      sload\n      dup2\n      lt\n      tag_81\n      jumpi\n      0x00\n      dup1\n      revert\n    tag_81:\n      swap1\n      0x00\n      mstore\n      keccak256(0x00, 0x20)\n      swap1\n      0x05\n      mul\n      add\n      0x00\n      swap2\n      pop\n      swap1\n      pop\n      dup1\n      0x00\n      add\n      dup1\n      sload\n      tag_83\n      swap1\n      tag_84\n      jump\t// in\n    tag_83:\n      dup1\n      0x1f\n      add\n      0x20\n      dup1\n      swap2\n      div\n      mul\n      0x20\n      add\n      mload(0x40)\n      swap1\n      dup2\n      add\n      0x40\n      mstore\n      dup1\n      swap3\n      swap2\n      swap1\n      dup2\n      dup2\n      mstore\n      0x20\n      add\n      dup3\n      dup1\n      sload\n      tag_85\n      swap1\n      tag_84\n      jump\t// in\n    tag_85:\n      dup1\n      iszero\n      tag_86\n      jumpi\n      dup1\n      0x1f\n      lt\n      tag_87\n      jumpi\n      0x0100\n      dup1\n      dup4\n      sload\n      div\n      mul\n      dup4\n      mstore\n      swap2\n      0x20\n      add\n      swap2\n      jump(tag_86)\n    tag_87:\n      dup3\n      add\n      swap2\n      swap1\n      0x00\n      mstore\n      keccak256(0x00, 0x20)\n      swap1\n    tag_88:\n      dup2\n      sload\n      dup2\n      mstore\n      swap1\n      0x01\n      add\n      swap1\n      0x20\n      add\n      dup1\n      dup4\n      gt\n      tag_88\n      jumpi\n      dup3\n      swap1\n      sub\n      0x1f\n      and\n      dup3\n      add\n      swap2\n    tag_86:\n      pop\n      pop\n      pop\n      pop\n      pop\n      swap1\n      dup1\n      0x01\n      add\n      sload\n      swap1\n      dup1\n      0x02\n      add\n      0x00\n      swap1\n      sload\n      swap1\n      0x0100\n      exp\n      swap1\n      div\n      0xffffffffffffffffffffffffffffffffffffffff\n      and\n      swap1\n      dup1\n      0x02\n      add\n      0x14\n      swap1\n      sload\n      swap1\n      0x0100\n      exp\n      swap1\n      div\n      0xff\n      and\n      swap1\n      dup1\n      0x03\n      add\n      sload\n      swap1\n      pop\n      dup6\n      jump\t// out\n        /* \"Campaign.sol\":1319:1345  uint public approversCount */\n    tag_49:\n      sload(0x04)\n      dup2\n      jump\t// out\n        /* \"Campaign.sol\":1876:2187  function createRequest(string memory description, uint value, address payable recipient) public restricted {... */\n    tag_55:\n        /* \"Campaign.sol\":1470:1477  manager */\n      0x01\n      0x00\n      swap1\n      sload\n      swap1\n      0x0100\n      exp\n      swap1\n      div\n      0xffffffffffffffffffffffffffffffffffffffff\n      and\n        /* \"Campaign.sol\":1456:1477  msg.sender == manager */\n      0xffffffffffffffffffffffffffffffffffffffff\n      and\n        /* \"Campaign.sol\":1456:1466  msg.sender */\n      caller\n        /* \"Campaign.sol\":1456:1477  msg.sender == manager */\n      0xffffffffffffffffffffffffffffffffffffffff\n      and\n      eq\n        /* \"Campaign.sol\":1448:1478  require(msg.sender == manager) */\n      tag_90\n      jumpi\n      0x00\n      dup1\n      revert\n    tag_90:\n        /* \"Campaign.sol\":1993:2010  Request storage r */\n      0x00\n        /* \"Campaign.sol\":2013:2021  requests */\n      dup1\n        /* \"Campaign.sol\":2013:2028  requests.push() */\n      0x01\n      dup2\n      0x01\n      dup2\n      sload\n      add\n      dup1\n      dup3\n      sstore\n      dup1\n      swap2\n      pop\n      pop\n      sub\n      swap1\n      0x00\n      mstore\n      keccak256(0x00, 0x20)\n      swap1\n      0x05\n      mul\n      add\n        /* \"Campaign.sol\":1993:2028  Request storage r = requests.push() */\n      swap1\n      pop\n        /* \"Campaign.sol\":2054:2065  description */\n      dup4\n        /* \"Campaign.sol\":2038:2039  r */\n      dup2\n        /* \"Campaign.sol\":2038:2051  r.description */\n      0x00\n      add\n        /* \"Campaign.sol\":2038:2065  r.description = description */\n      swap1\n      dup1\n      mload\n      swap1\n      0x20\n      add\n      swap1\n      tag_93\n      swap3\n      swap2\n      swap1\n      tag_94\n      jump\t// in\n    tag_93:\n      pop\n        /* \"Campaign.sol\":2085:2090  value */\n      dup3\n        /* \"Campaign.sol\":2075:2076  r */\n      dup2\n        /* \"Campaign.sol\":2075:2082  r.value */\n      0x01\n      add\n        /* \"Campaign.sol\":2075:2090  r.value = value */\n      dup2\n      swap1\n      sstore\n      pop\n        /* \"Campaign.sol\":2114:2123  recipient */\n      dup2\n        /* \"Campaign.sol\":2100:2101  r */\n      dup2\n        /* \"Campaign.sol\":2100:2111  r.recipient */\n      0x02\n      add\n      0x00\n        /* \"Campaign.sol\":2100:2123  r.recipient = recipient */\n      0x0100\n      exp\n      dup2\n      sload\n      dup2\n      0xffffffffffffffffffffffffffffffffffffffff\n      mul\n      not\n      and\n      swap1\n      dup4\n      0xffffffffffffffffffffffffffffffffffffffff\n      and\n      mul\n      or\n      swap1\n      sstore\n      pop\n        /* \"Campaign.sol\":2146:2151  false */\n      0x00\n        /* \"Campaign.sol\":2133:2134  r */\n      dup2\n        /* \"Campaign.sol\":2133:2143  r.complete */\n      0x02\n      add\n      0x14\n        /* \"Campaign.sol\":2133:2151  r.complete = false */\n      0x0100\n      exp\n      dup2\n      sload\n      dup2\n      0xff\n      mul\n      not\n      and\n      swap1\n      dup4\n      iszero\n      iszero\n      mul\n      or\n      swap1\n      sstore\n      pop\n        /* \"Campaign.sol\":2179:2180  0 */\n      0x00\n        /* \"Campaign.sol\":2161:2162  r */\n      dup2\n        /* \"Campaign.sol\":2161:2176  r.approvalCount */\n      0x03\n      add\n        /* \"Campaign.sol\":2161:2180  r.approvalCount = 0 */\n      dup2\n      swap1\n      sstore\n      pop\n        /* \"Campaign.sol\":1983:2187  {... */\n      pop\n        /* \"Campaign.sol\":1876:2187  function createRequest(string memory description, uint value, address payable recipient) public restricted {... */\n      pop\n      pop\n      pop\n      jump\t// out\n        /* \"Campaign.sol\":1124:1155  uint public minimumContribution */\n    tag_58:\n      sload(0x02)\n      dup2\n      jump\t// out\n        /* \"Campaign.sol\":1669:1828  function contribute() public payable {... */\n    tag_61:\n        /* \"Campaign.sol\":1736:1755  minimumContribution */\n      sload(0x02)\n        /* \"Campaign.sol\":1724:1733  msg.value */\n      callvalue\n        /* \"Campaign.sol\":1724:1755  msg.value > minimumContribution */\n      gt\n        /* \"Campaign.sol\":1716:1756  require(msg.value > minimumContribution) */\n      tag_96\n      jumpi\n      0x00\n      dup1\n      revert\n    tag_96:\n        /* \"Campaign.sol\":1791:1795  true */\n      0x01\n        /* \"Campaign.sol\":1767:1776  approvers */\n      0x03\n        /* \"Campaign.sol\":1767:1788  approvers[msg.sender] */\n      0x00\n        /* \"Campaign.sol\":1777:1787  msg.sender */\n      caller\n        /* \"Campaign.sol\":1767:1788  approvers[msg.sender] */\n      0xffffffffffffffffffffffffffffffffffffffff\n      and\n      0xffffffffffffffffffffffffffffffffffffffff\n      and\n      dup2\n      mstore\n      0x20\n      add\n      swap1\n      dup2\n      mstore\n      0x20\n      add\n      0x00\n      keccak256\n      0x00\n        /* \"Campaign.sol\":1767:1795  approvers[msg.sender] = true */\n      0x0100\n      exp\n      dup2\n      sload\n      dup2\n      0xff\n      mul\n      not\n      and\n      swap1\n      dup4\n      iszero\n      iszero\n      mul\n      or\n      swap1\n      sstore\n      pop\n        /* \"Campaign.sol\":1805:1819  approversCount */\n      0x04\n      0x00\n        /* \"Campaign.sol\":1805:1821  approversCount++ */\n      dup2\n      sload\n      dup1\n      swap3\n      swap2\n      swap1\n      tag_97\n      swap1\n      tag_98\n      jump\t// in\n    tag_97:\n      swap2\n      swap1\n      pop\n      sstore\n      pop\n        /* \"Campaign.sol\":1669:1828  function contribute() public payable {... */\n      jump\t// out\n        /* \"Campaign.sol\":2193:2464  function approveRequest(uint index) public {... */\n    tag_65:\n        /* \"Campaign.sol\":2246:2269  Request storage request */\n      0x00\n        /* \"Campaign.sol\":2272:2280  requests */\n      dup1\n        /* \"Campaign.sol\":2281:2286  index */\n      dup3\n        /* \"Campaign.sol\":2272:2287  requests[index] */\n      dup2\n      sload\n      dup2\n      lt\n      tag_100\n      jumpi\n      tag_101\n      tag_71\n      jump\t// in\n    tag_101:\n    tag_100:\n      swap1\n      0x00\n      mstore\n      keccak256(0x00, 0x20)\n      swap1\n      0x05\n      mul\n      add\n        /* \"Campaign.sol\":2246:2287  Request storage request = requests[index] */\n      swap1\n      pop\n        /* \"Campaign.sol\":2306:2315  approvers */\n      0x03\n        /* \"Campaign.sol\":2306:2327  approvers[msg.sender] */\n      0x00\n        /* \"Campaign.sol\":2316:2326  msg.sender */\n      caller\n        /* \"Campaign.sol\":2306:2327  approvers[msg.sender] */\n      0xffffffffffffffffffffffffffffffffffffffff\n      and\n      0xffffffffffffffffffffffffffffffffffffffff\n      and\n      dup2\n      mstore\n      0x20\n      add\n      swap1\n      dup2\n      mstore\n      0x20\n      add\n      0x00\n      keccak256\n      0x00\n      swap1\n      sload\n      swap1\n      0x0100\n      exp\n      swap1\n      div\n      0xff\n      and\n        /* \"Campaign.sol\":2298:2328  require(approvers[msg.sender]) */\n      tag_103\n      jumpi\n      0x00\n      dup1\n      revert\n    tag_103:\n        /* \"Campaign.sol\":2347:2354  request */\n      dup1\n        /* \"Campaign.sol\":2347:2364  request.approvals */\n      0x04\n      add\n        /* \"Campaign.sol\":2347:2376  request.approvals[msg.sender] */\n      0x00\n        /* \"Campaign.sol\":2365:2375  msg.sender */\n      caller\n        /* \"Campaign.sol\":2347:2376  request.approvals[msg.sender] */\n      0xffffffffffffffffffffffffffffffffffffffff\n      and\n      0xffffffffffffffffffffffffffffffffffffffff\n      and\n      dup2\n      mstore\n      0x20\n      add\n      swap1\n      dup2\n      mstore\n      0x20\n      add\n      0x00\n      keccak256\n      0x00\n      swap1\n      sload\n      swap1\n      0x0100\n      exp\n      swap1\n      div\n      0xff\n      and\n        /* \"Campaign.sol\":2346:2376  !request.approvals[msg.sender] */\n      iszero\n        /* \"Campaign.sol\":2338:2377  require(!request.approvals[msg.sender]) */\n      tag_104\n      jumpi\n      0x00\n      dup1\n      revert\n    tag_104:\n        /* \"Campaign.sol\":2420:2424  true */\n      0x01\n        /* \"Campaign.sol\":2388:2395  request */\n      dup2\n        /* \"Campaign.sol\":2388:2405  request.approvals */\n      0x04\n      add\n        /* \"Campaign.sol\":2388:2417  request.approvals[msg.sender] */\n      0x00\n        /* \"Campaign.sol\":2406:2416  msg.sender */\n      caller\n        /* \"Campaign.sol\":2388:2417  request.approvals[msg.sender] */\n      0xffffffffffffffffffffffffffffffffffffffff\n      and\n      0xffffffffffffffffffffffffffffffffffffffff\n      and\n      dup2\n      mstore\n      0x20\n      add\n      swap1\n      dup2\n      mstore\n      0x20\n      add\n      0x00\n      keccak256\n      0x00\n        /* \"Campaign.sol\":2388:2424  request.approvals[msg.sender] = true */\n      0x0100\n      exp\n      dup2\n      sload\n      dup2\n      0xff\n      mul\n      not\n      and\n      swap1\n      dup4\n      iszero\n      iszero\n      mul\n      or\n      swap1\n      sstore\n      pop\n        /* \"Campaign.sol\":2434:2441  request */\n      dup1\n        /* \"Campaign.sol\":2434:2455  request.approvalCount */\n      0x03\n      add\n      0x00\n        /* \"Campaign.sol\":2434:2457  request.approvalCount++ */\n      dup2\n      sload\n      dup1\n      swap3\n      swap2\n      swap1\n      tag_105\n      swap1\n      tag_98\n      jump\t// in\n    tag_105:\n      swap2\n      swap1\n      pop\n      sstore\n      pop\n        /* \"Campaign.sol\":2236:2464  {... */\n      pop\n        /* \"Campaign.sol\":2193:2464  function approveRequest(uint index) public {... */\n      pop\n      jump\t// out\n    tag_94:\n      dup3\n      dup1\n      sload\n      tag_106\n      swap1\n      tag_84\n      jump\t// in\n    tag_106:\n      swap1\n      0x00\n      mstore\n      keccak256(0x00, 0x20)\n      swap1\n      0x1f\n      add\n      0x20\n      swap1\n      div\n      dup2\n      add\n      swap3\n      dup3\n      tag_108\n      jumpi\n      0x00\n      dup6\n      sstore\n      jump(tag_107)\n    tag_108:\n      dup3\n      0x1f\n      lt\n      tag_109\n      jumpi\n      dup1\n      mload\n      not(0xff)\n      and\n      dup4\n      dup1\n      add\n      or\n      dup6\n      sstore\n      jump(tag_107)\n    tag_109:\n      dup3\n      dup1\n      add\n      0x01\n      add\n      dup6\n      sstore\n      dup3\n      iszero\n      tag_107\n      jumpi\n      swap2\n      dup3\n      add\n    tag_110:\n      dup3\n      dup2\n      gt\n      iszero\n      tag_111\n      jumpi\n      dup3\n      mload\n      dup3\n      sstore\n      swap2\n      0x20\n      add\n      swap2\n      swap1\n      0x01\n      add\n      swap1\n      jump(tag_110)\n    tag_111:\n    tag_107:\n      pop\n      swap1\n      pop\n      tag_112\n      swap2\n      swap1\n      tag_113\n      jump\t// in\n    tag_112:\n      pop\n      swap1\n      jump\t// out\n    tag_113:\n    tag_114:\n      dup1\n      dup3\n      gt\n      iszero\n      tag_115\n      jumpi\n      0x00\n      dup2\n      0x00\n      swap1\n      sstore\n      pop\n      0x01\n      add\n      jump(tag_114)\n    tag_115:\n      pop\n      swap1\n      jump\t// out\n        /* \"#utility.yul\":7:82   */\n    tag_116:\n        /* \"#utility.yul\":40:46   */\n      0x00\n        /* \"#utility.yul\":73:75   */\n      0x40\n        /* \"#utility.yul\":67:76   */\n      mload\n        /* \"#utility.yul\":57:76   */\n      swap1\n      pop\n        /* \"#utility.yul\":7:82   */\n      swap1\n      jump\t// out\n        /* \"#utility.yul\":88:205   */\n    tag_117:\n        /* \"#utility.yul\":197:198   */\n      0x00\n        /* \"#utility.yul\":194:195   */\n      dup1\n        /* \"#utility.yul\":187:199   */\n      revert\n        /* \"#utility.yul\":211:328   */\n    tag_118:\n        /* \"#utility.yul\":320:321   */\n      0x00\n        /* \"#utility.yul\":317:318   */\n      dup1\n        /* \"#utility.yul\":310:322   */\n      revert\n        /* \"#utility.yul\":334:411   */\n    tag_119:\n        /* \"#utility.yul\":371:378   */\n      0x00\n        /* \"#utility.yul\":400:405   */\n      dup2\n        /* \"#utility.yul\":389:405   */\n      swap1\n      pop\n        /* \"#utility.yul\":334:411   */\n      swap2\n      swap1\n      pop\n      jump\t// out\n        /* \"#utility.yul\":417:539   */\n    tag_120:\n        /* \"#utility.yul\":490:514   */\n      tag_157\n        /* \"#utility.yul\":508:513   */\n      dup2\n        /* \"#utility.yul\":490:514   */\n      tag_119\n      jump\t// in\n    tag_157:\n        /* \"#utility.yul\":483:488   */\n      dup2\n        /* \"#utility.yul\":480:515   */\n      eq\n        /* \"#utility.yul\":470:533   */\n      tag_158\n      jumpi\n        /* \"#utility.yul\":529:530   */\n      0x00\n        /* \"#utility.yul\":526:527   */\n      dup1\n        /* \"#utility.yul\":519:531   */\n      revert\n        /* \"#utility.yul\":470:533   */\n    tag_158:\n        /* \"#utility.yul\":417:539   */\n      pop\n      jump\t// out\n        /* \"#utility.yul\":545:684   */\n    tag_121:\n        /* \"#utility.yul\":591:596   */\n      0x00\n        /* \"#utility.yul\":629:635   */\n      dup2\n        /* \"#utility.yul\":616:636   */\n      calldataload\n        /* \"#utility.yul\":607:636   */\n      swap1\n      pop\n        /* \"#utility.yul\":645:678   */\n      tag_160\n        /* \"#utility.yul\":672:677   */\n      dup2\n        /* \"#utility.yul\":645:678   */\n      tag_120\n      jump\t// in\n    tag_160:\n        /* \"#utility.yul\":545:684   */\n      swap3\n      swap2\n      pop\n      pop\n      jump\t// out\n        /* \"#utility.yul\":690:1019   */\n    tag_17:\n        /* \"#utility.yul\":749:755   */\n      0x00\n        /* \"#utility.yul\":798:800   */\n      0x20\n        /* \"#utility.yul\":786:795   */\n      dup3\n        /* \"#utility.yul\":777:784   */\n      dup5\n        /* \"#utility.yul\":773:796   */\n      sub\n        /* \"#utility.yul\":769:801   */\n      slt\n        /* \"#utility.yul\":766:885   */\n      iszero\n      tag_162\n      jumpi\n        /* \"#utility.yul\":804:883   */\n      tag_163\n      tag_117\n      jump\t// in\n    tag_163:\n        /* \"#utility.yul\":766:885   */\n    tag_162:\n        /* \"#utility.yul\":924:925   */\n      0x00\n        /* \"#utility.yul\":949:1002   */\n      tag_164\n        /* \"#utility.yul\":994:1001   */\n      dup5\n        /* \"#utility.yul\":985:991   */\n      dup3\n        /* \"#utility.yul\":974:983   */\n      dup6\n        /* \"#utility.yul\":970:992   */\n      add\n        /* \"#utility.yul\":949:1002   */\n      tag_121\n      jump\t// in\n    tag_164:\n        /* \"#utility.yul\":939:1002   */\n      swap2\n      pop\n        /* \"#utility.yul\":895:1012   */\n      pop\n        /* \"#utility.yul\":690:1019   */\n      swap3\n      swap2\n      pop\n      pop\n      jump\t// out\n        /* \"#utility.yul\":1025:1151   */\n    tag_122:\n        /* \"#utility.yul\":1062:1069   */\n      0x00\n        /* \"#utility.yul\":1102:1144   */\n      0xffffffffffffffffffffffffffffffffffffffff\n        /* \"#utility.yul\":1095:1100   */\n      dup3\n        /* \"#utility.yul\":1091:1145   */\n      and\n        /* \"#utility.yul\":1080:1145   */\n      swap1\n      pop\n        /* \"#utility.yul\":1025:1151   */\n      swap2\n      swap1\n      pop\n      jump\t// out\n        /* \"#utility.yul\":1157:1253   */\n    tag_123:\n        /* \"#utility.yul\":1194:1201   */\n      0x00\n        /* \"#utility.yul\":1223:1247   */\n      tag_167\n        /* \"#utility.yul\":1241:1246   */\n      dup3\n        /* \"#utility.yul\":1223:1247   */\n      tag_122\n      jump\t// in\n    tag_167:\n        /* \"#utility.yul\":1212:1247   */\n      swap1\n      pop\n        /* \"#utility.yul\":1157:1253   */\n      swap2\n      swap1\n      pop\n      jump\t// out\n        /* \"#utility.yul\":1259:1381   */\n    tag_124:\n        /* \"#utility.yul\":1332:1356   */\n      tag_169\n        /* \"#utility.yul\":1350:1355   */\n      dup2\n        /* \"#utility.yul\":1332:1356   */\n      tag_123\n      jump\t// in\n    tag_169:\n        /* \"#utility.yul\":1325:1330   */\n      dup2\n        /* \"#utility.yul\":1322:1357   */\n      eq\n        /* \"#utility.yul\":1312:1375   */\n      tag_170\n      jumpi\n        /* \"#utility.yul\":1371:1372   */\n      0x00\n        /* \"#utility.yul\":1368:1369   */\n      dup1\n        /* \"#utility.yul\":1361:1373   */\n      revert\n        /* \"#utility.yul\":1312:1375   */\n    tag_170:\n        /* \"#utility.yul\":1259:1381   */\n      pop\n      jump\t// out\n        /* \"#utility.yul\":1387:1526   */\n    tag_125:\n        /* \"#utility.yul\":1433:1438   */\n      0x00\n        /* \"#utility.yul\":1471:1477   */\n      dup2\n        /* \"#utility.yul\":1458:1478   */\n      calldataload\n        /* \"#utility.yul\":1449:1478   */\n      swap1\n      pop\n        /* \"#utility.yul\":1487:1520   */\n      tag_172\n        /* \"#utility.yul\":1514:1519   */\n      dup2\n        /* \"#utility.yul\":1487:1520   */\n      tag_124\n      jump\t// in\n    tag_172:\n        /* \"#utility.yul\":1387:1526   */\n      swap3\n      swap2\n      pop\n      pop\n      jump\t// out\n        /* \"#utility.yul\":1532:1861   */\n    tag_22:\n        /* \"#utility.yul\":1591:1597   */\n      0x00\n        /* \"#utility.yul\":1640:1642   */\n      0x20\n        /* \"#utility.yul\":1628:1637   */\n      dup3\n        /* \"#utility.yul\":1619:1626   */\n      dup5\n        /* \"#utility.yul\":1615:1638   */\n      sub\n        /* \"#utility.yul\":1611:1643   */\n      slt\n        /* \"#utility.yul\":1608:1727   */\n      iszero\n      tag_174\n      jumpi\n        /* \"#utility.yul\":1646:1725   */\n      tag_175\n      tag_117\n      jump\t// in\n    tag_175:\n        /* \"#utility.yul\":1608:1727   */\n    tag_174:\n        /* \"#utility.yul\":1766:1767   */\n      0x00\n        /* \"#utility.yul\":1791:1844   */\n      tag_176\n        /* \"#utility.yul\":1836:1843   */\n      dup5\n        /* \"#utility.yul\":1827:1833   */\n      dup3\n        /* \"#utility.yul\":1816:1825   */\n      dup6\n        /* \"#utility.yul\":1812:1834   */\n      add\n        /* \"#utility.yul\":1791:1844   */\n      tag_125\n      jump\t// in\n    tag_176:\n        /* \"#utility.yul\":1781:1844   */\n      swap2\n      pop\n        /* \"#utility.yul\":1737:1854   */\n      pop\n        /* \"#utility.yul\":1532:1861   */\n      swap3\n      swap2\n      pop\n      pop\n      jump\t// out\n        /* \"#utility.yul\":1867:1957   */\n    tag_126:\n        /* \"#utility.yul\":1901:1908   */\n      0x00\n        /* \"#utility.yul\":1944:1949   */\n      dup2\n        /* \"#utility.yul\":1937:1950   */\n      iszero\n        /* \"#utility.yul\":1930:1951   */\n      iszero\n        /* \"#utility.yul\":1919:1951   */\n      swap1\n      pop\n        /* \"#utility.yul\":1867:1957   */\n      swap2\n      swap1\n      pop\n      jump\t// out\n        /* \"#utility.yul\":1963:2072   */\n    tag_127:\n        /* \"#utility.yul\":2044:2065   */\n      tag_179\n        /* \"#utility.yul\":2059:2064   */\n      dup2\n        /* \"#utility.yul\":2044:2065   */\n      tag_126\n      jump\t// in\n    tag_179:\n        /* \"#utility.yul\":2039:2042   */\n      dup3\n        /* \"#utility.yul\":2032:2066   */\n      mstore\n        /* \"#utility.yul\":1963:2072   */\n      pop\n      pop\n      jump\t// out\n        /* \"#utility.yul\":2078:2288   */\n    tag_25:\n        /* \"#utility.yul\":2165:2169   */\n      0x00\n        /* \"#utility.yul\":2203:2205   */\n      0x20\n        /* \"#utility.yul\":2192:2201   */\n      dup3\n        /* \"#utility.yul\":2188:2206   */\n      add\n        /* \"#utility.yul\":2180:2206   */\n      swap1\n      pop\n        /* \"#utility.yul\":2216:2281   */\n      tag_181\n        /* \"#utility.yul\":2278:2279   */\n      0x00\n        /* \"#utility.yul\":2267:2276   */\n      dup4\n        /* \"#utility.yul\":2263:2280   */\n      add\n        /* \"#utility.yul\":2254:2260   */\n      dup5\n        /* \"#utility.yul\":2216:2281   */\n      tag_127\n      jump\t// in\n    tag_181:\n        /* \"#utility.yul\":2078:2288   */\n      swap3\n      swap2\n      pop\n      pop\n      jump\t// out\n        /* \"#utility.yul\":2294:2412   */\n    tag_128:\n        /* \"#utility.yul\":2381:2405   */\n      tag_183\n        /* \"#utility.yul\":2399:2404   */\n      dup2\n        /* \"#utility.yul\":2381:2405   */\n      tag_119\n      jump\t// in\n    tag_183:\n        /* \"#utility.yul\":2376:2379   */\n      dup3\n        /* \"#utility.yul\":2369:2406   */\n      mstore\n        /* \"#utility.yul\":2294:2412   */\n      pop\n      pop\n      jump\t// out\n        /* \"#utility.yul\":2418:2640   */\n    tag_30:\n        /* \"#utility.yul\":2511:2515   */\n      0x00\n        /* \"#utility.yul\":2549:2551   */\n      0x20\n        /* \"#utility.yul\":2538:2547   */\n      dup3\n        /* \"#utility.yul\":2534:2552   */\n      add\n        /* \"#utility.yul\":2526:2552   */\n      swap1\n      pop\n        /* \"#utility.yul\":2562:2633   */\n      tag_185\n        /* \"#utility.yul\":2630:2631   */\n      0x00\n        /* \"#utility.yul\":2619:2628   */\n      dup4\n        /* \"#utility.yul\":2615:2632   */\n      add\n        /* \"#utility.yul\":2606:2612   */\n      dup5\n        /* \"#utility.yul\":2562:2633   */\n      tag_128\n      jump\t// in\n    tag_185:\n        /* \"#utility.yul\":2418:2640   */\n      swap3\n      swap2\n      pop\n      pop\n      jump\t// out\n        /* \"#utility.yul\":2646:2764   */\n    tag_129:\n        /* \"#utility.yul\":2733:2757   */\n      tag_187\n        /* \"#utility.yul\":2751:2756   */\n      dup2\n        /* \"#utility.yul\":2733:2757   */\n      tag_123\n      jump\t// in\n    tag_187:\n        /* \"#utility.yul\":2728:2731   */\n      dup3\n        /* \"#utility.yul\":2721:2758   */\n      mstore\n        /* \"#utility.yul\":2646:2764   */\n      pop\n      pop\n      jump\t// out\n        /* \"#utility.yul\":2770:3434   */\n    tag_35:\n        /* \"#utility.yul\":2975:2979   */\n      0x00\n        /* \"#utility.yul\":3013:3016   */\n      0xa0\n        /* \"#utility.yul\":3002:3011   */\n      dup3\n        /* \"#utility.yul\":2998:3017   */\n      add\n        /* \"#utility.yul\":2990:3017   */\n      swap1\n      pop\n        /* \"#utility.yul\":3027:3098   */\n      tag_189\n        /* \"#utility.yul\":3095:3096   */\n      0x00\n        /* \"#utility.yul\":3084:3093   */\n      dup4\n        /* \"#utility.yul\":3080:3097   */\n      add\n        /* \"#utility.yul\":3071:3077   */\n      dup9\n        /* \"#utility.yul\":3027:3098   */\n      tag_128\n      jump\t// in\n    tag_189:\n        /* \"#utility.yul\":3108:3180   */\n      tag_190\n        /* \"#utility.yul\":3176:3178   */\n      0x20\n        /* \"#utility.yul\":3165:3174   */\n      dup4\n        /* \"#utility.yul\":3161:3179   */\n      add\n        /* \"#utility.yul\":3152:3158   */\n      dup8\n        /* \"#utility.yul\":3108:3180   */\n      tag_128\n      jump\t// in\n    tag_190:\n        /* \"#utility.yul\":3190:3262   */\n      tag_191\n        /* \"#utility.yul\":3258:3260   */\n      0x40\n        /* \"#utility.yul\":3247:3256   */\n      dup4\n        /* \"#utility.yul\":3243:3261   */\n      add\n        /* \"#utility.yul\":3234:3240   */\n      dup7\n        /* \"#utility.yul\":3190:3262   */\n      tag_128\n      jump\t// in\n    tag_191:\n        /* \"#utility.yul\":3272:3344   */\n      tag_192\n        /* \"#utility.yul\":3340:3342   */\n      0x60\n        /* \"#utility.yul\":3329:3338   */\n      dup4\n        /* \"#utility.yul\":3325:3343   */\n      add\n        /* \"#utility.yul\":3316:3322   */\n      dup6\n        /* \"#utility.yul\":3272:3344   */\n      tag_128\n      jump\t// in\n    tag_192:\n        /* \"#utility.yul\":3354:3427   */\n      tag_193\n        /* \"#utility.yul\":3422:3425   */\n      0x80\n        /* \"#utility.yul\":3411:3420   */\n      dup4\n        /* \"#utility.yul\":3407:3426   */\n      add\n        /* \"#utility.yul\":3398:3404   */\n      dup5\n        /* \"#utility.yul\":3354:3427   */\n      tag_129\n      jump\t// in\n    tag_193:\n        /* \"#utility.yul\":2770:3434   */\n      swap7\n      swap6\n      pop\n      pop\n      pop\n      pop\n      pop\n      pop\n      jump\t// out\n        /* \"#utility.yul\":3440:3662   */\n    tag_40:\n        /* \"#utility.yul\":3533:3537   */\n      0x00\n        /* \"#utility.yul\":3571:3573   */\n      0x20\n        /* \"#utility.yul\":3560:3569   */\n      dup3\n        /* \"#utility.yul\":3556:3574   */\n      add\n        /* \"#utility.yul\":3548:3574   */\n      swap1\n      pop\n        /* \"#utility.yul\":3584:3655   */\n      tag_195\n        /* \"#utility.yul\":3652:3653   */\n      0x00\n        /* \"#utility.yul\":3641:3650   */\n      dup4\n        /* \"#utility.yul\":3637:3654   */\n      add\n        /* \"#utility.yul\":3628:3634   */\n      dup5\n        /* \"#utility.yul\":3584:3655   */\n      tag_129\n      jump\t// in\n    tag_195:\n        /* \"#utility.yul\":3440:3662   */\n      swap3\n      swap2\n      pop\n      pop\n      jump\t// out\n        /* \"#utility.yul\":3668:3767   */\n    tag_130:\n        /* \"#utility.yul\":3720:3726   */\n      0x00\n        /* \"#utility.yul\":3754:3759   */\n      dup2\n        /* \"#utility.yul\":3748:3760   */\n      mload\n        /* \"#utility.yul\":3738:3760   */\n      swap1\n      pop\n        /* \"#utility.yul\":3668:3767   */\n      swap2\n      swap1\n      pop\n      jump\t// out\n        /* \"#utility.yul\":3773:3942   */\n    tag_131:\n        /* \"#utility.yul\":3857:3868   */\n      0x00\n        /* \"#utility.yul\":3891:3897   */\n      dup3\n        /* \"#utility.yul\":3886:3889   */\n      dup3\n        /* \"#utility.yul\":3879:3898   */\n      mstore\n        /* \"#utility.yul\":3931:3935   */\n      0x20\n        /* \"#utility.yul\":3926:3929   */\n      dup3\n        /* \"#utility.yul\":3922:3936   */\n      add\n        /* \"#utility.yul\":3907:3936   */\n      swap1\n      pop\n        /* \"#utility.yul\":3773:3942   */\n      swap3\n      swap2\n      pop\n      pop\n      jump\t// out\n        /* \"#utility.yul\":3948:4255   */\n    tag_132:\n        /* \"#utility.yul\":4016:4017   */\n      0x00\n        /* \"#utility.yul\":4026:4139   */\n    tag_199:\n        /* \"#utility.yul\":4040:4046   */\n      dup4\n        /* \"#utility.yul\":4037:4038   */\n      dup2\n        /* \"#utility.yul\":4034:4047   */\n      lt\n        /* \"#utility.yul\":4026:4139   */\n      iszero\n      tag_201\n      jumpi\n        /* \"#utility.yul\":4125:4126   */\n      dup1\n        /* \"#utility.yul\":4120:4123   */\n      dup3\n        /* \"#utility.yul\":4116:4127   */\n      add\n        /* \"#utility.yul\":4110:4128   */\n      mload\n        /* \"#utility.yul\":4106:4107   */\n      dup2\n        /* \"#utility.yul\":4101:4104   */\n      dup5\n        /* \"#utility.yul\":4097:4108   */\n      add\n        /* \"#utility.yul\":4090:4129   */\n      mstore\n        /* \"#utility.yul\":4062:4064   */\n      0x20\n        /* \"#utility.yul\":4059:4060   */\n      dup2\n        /* \"#utility.yul\":4055:4065   */\n      add\n        /* \"#utility.yul\":4050:4065   */\n      swap1\n      pop\n        /* \"#utility.yul\":4026:4139   */\n      jump(tag_199)\n    tag_201:\n        /* \"#utility.yul\":4157:4163   */\n      dup4\n        /* \"#utility.yul\":4154:4155   */\n      dup2\n        /* \"#utility.yul\":4151:4164   */\n      gt\n        /* \"#utility.yul\":4148:4249   */\n      iszero\n      tag_202\n      jumpi\n        /* \"#utility.yul\":4237:4238   */\n      0x00\n        /* \"#utility.yul\":4228:4234   */\n      dup5\n        /* \"#utility.yul\":4223:4226   */\n      dup5\n        /* \"#utility.yul\":4219:4235   */\n      add\n        /* \"#utility.yul\":4212:4239   */\n      mstore\n        /* \"#utility.yul\":4148:4249   */\n    tag_202:\n        /* \"#utility.yul\":3997:4255   */\n      pop\n        /* \"#utility.yul\":3948:4255   */\n      pop\n      pop\n      pop\n      jump\t// out\n        /* \"#utility.yul\":4261:4363   */\n    tag_133:\n        /* \"#utility.yul\":4302:4308   */\n      0x00\n        /* \"#utility.yul\":4353:4355   */\n      0x1f\n        /* \"#utility.yul\":4349:4356   */\n      not\n        /* \"#utility.yul\":4344:4346   */\n      0x1f\n        /* \"#utility.yul\":4337:4342   */\n      dup4\n        /* \"#utility.yul\":4333:4347   */\n      add\n        /* \"#utility.yul\":4329:4357   */\n      and\n        /* \"#utility.yul\":4319:4357   */\n      swap1\n      pop\n        /* \"#utility.yul\":4261:4363   */\n      swap2\n      swap1\n      pop\n      jump\t// out\n        /* \"#utility.yul\":4369:4733   */\n    tag_134:\n        /* \"#utility.yul\":4457:4460   */\n      0x00\n        /* \"#utility.yul\":4485:4524   */\n      tag_205\n        /* \"#utility.yul\":4518:4523   */\n      dup3\n        /* \"#utility.yul\":4485:4524   */\n      tag_130\n      jump\t// in\n    tag_205:\n        /* \"#utility.yul\":4540:4611   */\n      tag_206\n        /* \"#utility.yul\":4604:4610   */\n      dup2\n        /* \"#utility.yul\":4599:4602   */\n      dup6\n        /* \"#utility.yul\":4540:4611   */\n      tag_131\n      jump\t// in\n    tag_206:\n        /* \"#utility.yul\":4533:4611   */\n      swap4\n      pop\n        /* \"#utility.yul\":4620:4672   */\n      tag_207\n        /* \"#utility.yul\":4665:4671   */\n      dup2\n        /* \"#utility.yul\":4660:4663   */\n      dup6\n        /* \"#utility.yul\":4653:4657   */\n      0x20\n        /* \"#utility.yul\":4646:4651   */\n      dup7\n        /* \"#utility.yul\":4642:4658   */\n      add\n        /* \"#utility.yul\":4620:4672   */\n      tag_132\n      jump\t// in\n    tag_207:\n        /* \"#utility.yul\":4697:4726   */\n      tag_208\n        /* \"#utility.yul\":4719:4725   */\n      dup2\n        /* \"#utility.yul\":4697:4726   */\n      tag_133\n      jump\t// in\n    tag_208:\n        /* \"#utility.yul\":4692:4695   */\n      dup5\n        /* \"#utility.yul\":4688:4727   */\n      add\n        /* \"#utility.yul\":4681:4727   */\n      swap2\n      pop\n        /* \"#utility.yul\":4461:4733   */\n      pop\n        /* \"#utility.yul\":4369:4733   */\n      swap3\n      swap2\n      pop\n      pop\n      jump\t// out\n        /* \"#utility.yul\":4739:4843   */\n    tag_135:\n        /* \"#utility.yul\":4784:4791   */\n      0x00\n        /* \"#utility.yul\":4813:4837   */\n      tag_210\n        /* \"#utility.yul\":4831:4836   */\n      dup3\n        /* \"#utility.yul\":4813:4837   */\n      tag_122\n      jump\t// in\n    tag_210:\n        /* \"#utility.yul\":4802:4837   */\n      swap1\n      pop\n        /* \"#utility.yul\":4739:4843   */\n      swap2\n      swap1\n      pop\n      jump\t// out\n        /* \"#utility.yul\":4849:4991   */\n    tag_136:\n        /* \"#utility.yul\":4952:4984   */\n      tag_212\n        /* \"#utility.yul\":4978:4983   */\n      dup2\n        /* \"#utility.yul\":4952:4984   */\n      tag_135\n      jump\t// in\n    tag_212:\n        /* \"#utility.yul\":4947:4950   */\n      dup3\n        /* \"#utility.yul\":4940:4985   */\n      mstore\n        /* \"#utility.yul\":4849:4991   */\n      pop\n      pop\n      jump\t// out\n        /* \"#utility.yul\":4997:5772   */\n    tag_46:\n        /* \"#utility.yul\":5232:5236   */\n      0x00\n        /* \"#utility.yul\":5270:5273   */\n      0xa0\n        /* \"#utility.yul\":5259:5268   */\n      dup3\n        /* \"#utility.yul\":5255:5274   */\n      add\n        /* \"#utility.yul\":5247:5274   */\n      swap1\n      pop\n        /* \"#utility.yul\":5320:5329   */\n      dup2\n        /* \"#utility.yul\":5314:5318   */\n      dup2\n        /* \"#utility.yul\":5310:5330   */\n      sub\n        /* \"#utility.yul\":5306:5307   */\n      0x00\n        /* \"#utility.yul\":5295:5304   */\n      dup4\n        /* \"#utility.yul\":5291:5308   */\n      add\n        /* \"#utility.yul\":5284:5331   */\n      mstore\n        /* \"#utility.yul\":5348:5426   */\n      tag_214\n        /* \"#utility.yul\":5421:5425   */\n      dup2\n        /* \"#utility.yul\":5412:5418   */\n      dup9\n        /* \"#utility.yul\":5348:5426   */\n      tag_134\n      jump\t// in\n    tag_214:\n        /* \"#utility.yul\":5340:5426   */\n      swap1\n      pop\n        /* \"#utility.yul\":5436:5508   */\n      tag_215\n        /* \"#utility.yul\":5504:5506   */\n      0x20\n        /* \"#utility.yul\":5493:5502   */\n      dup4\n        /* \"#utility.yul\":5489:5507   */\n      add\n        /* \"#utility.yul\":5480:5486   */\n      dup8\n        /* \"#utility.yul\":5436:5508   */\n      tag_128\n      jump\t// in\n    tag_215:\n        /* \"#utility.yul\":5518:5606   */\n      tag_216\n        /* \"#utility.yul\":5602:5604   */\n      0x40\n        /* \"#utility.yul\":5591:5600   */\n      dup4\n        /* \"#utility.yul\":5587:5605   */\n      add\n        /* \"#utility.yul\":5578:5584   */\n      dup7\n        /* \"#utility.yul\":5518:5606   */\n      tag_136\n      jump\t// in\n    tag_216:\n        /* \"#utility.yul\":5616:5682   */\n      tag_217\n        /* \"#utility.yul\":5678:5680   */\n      0x60\n        /* \"#utility.yul\":5667:5676   */\n      dup4\n        /* \"#utility.yul\":5663:5681   */\n      add\n        /* \"#utility.yul\":5654:5660   */\n      dup6\n        /* \"#utility.yul\":5616:5682   */\n      tag_127\n      jump\t// in\n    tag_217:\n        /* \"#utility.yul\":5692:5765   */\n      tag_218\n        /* \"#utility.yul\":5760:5763   */\n      0x80\n        /* \"#utility.yul\":5749:5758   */\n      dup4\n        /* \"#utility.yul\":5745:5764   */\n      add\n        /* \"#utility.yul\":5736:5742   */\n      dup5\n        /* \"#utility.yul\":5692:5765   */\n      tag_128\n      jump\t// in\n    tag_218:\n        /* \"#utility.yul\":4997:5772   */\n      swap7\n      swap6\n      pop\n      pop\n      pop\n      pop\n      pop\n      pop\n      jump\t// out\n        /* \"#utility.yul\":5778:5895   */\n    tag_137:\n        /* \"#utility.yul\":5887:5888   */\n      0x00\n        /* \"#utility.yul\":5884:5885   */\n      dup1\n        /* \"#utility.yul\":5877:5889   */\n      revert\n        /* \"#utility.yul\":5901:6018   */\n    tag_138:\n        /* \"#utility.yul\":6010:6011   */\n      0x00\n        /* \"#utility.yul\":6007:6008   */\n      dup1\n        /* \"#utility.yul\":6000:6012   */\n      revert\n        /* \"#utility.yul\":6024:6204   */\n    tag_139:\n        /* \"#utility.yul\":6072:6149   */\n      0x4e487b7100000000000000000000000000000000000000000000000000000000\n        /* \"#utility.yul\":6069:6070   */\n      0x00\n        /* \"#utility.yul\":6062:6150   */\n      mstore\n        /* \"#utility.yul\":6169:6173   */\n      0x41\n        /* \"#utility.yul\":6166:6167   */\n      0x04\n        /* \"#utility.yul\":6159:6174   */\n      mstore\n        /* \"#utility.yul\":6193:6197   */\n      0x24\n        /* \"#utility.yul\":6190:6191   */\n      0x00\n        /* \"#utility.yul\":6183:6198   */\n      revert\n        /* \"#utility.yul\":6210:6491   */\n    tag_140:\n        /* \"#utility.yul\":6293:6320   */\n      tag_223\n        /* \"#utility.yul\":6315:6319   */\n      dup3\n        /* \"#utility.yul\":6293:6320   */\n      tag_133\n      jump\t// in\n    tag_223:\n        /* \"#utility.yul\":6285:6291   */\n      dup2\n        /* \"#utility.yul\":6281:6321   */\n      add\n        /* \"#utility.yul\":6423:6429   */\n      dup2\n        /* \"#utility.yul\":6411:6421   */\n      dup2\n        /* \"#utility.yul\":6408:6430   */\n      lt\n        /* \"#utility.yul\":6387:6405   */\n      0xffffffffffffffff\n        /* \"#utility.yul\":6375:6385   */\n      dup3\n        /* \"#utility.yul\":6372:6406   */\n      gt\n        /* \"#utility.yul\":6369:6431   */\n      or\n        /* \"#utility.yul\":6366:6454   */\n      iszero\n      tag_224\n      jumpi\n        /* \"#utility.yul\":6434:6452   */\n      tag_225\n      tag_139\n      jump\t// in\n    tag_225:\n        /* \"#utility.yul\":6366:6454   */\n    tag_224:\n        /* \"#utility.yul\":6474:6484   */\n      dup1\n        /* \"#utility.yul\":6470:6472   */\n      0x40\n        /* \"#utility.yul\":6463:6485   */\n      mstore\n        /* \"#utility.yul\":6253:6491   */\n      pop\n        /* \"#utility.yul\":6210:6491   */\n      pop\n      pop\n      jump\t// out\n        /* \"#utility.yul\":6497:6626   */\n    tag_141:\n        /* \"#utility.yul\":6531:6537   */\n      0x00\n        /* \"#utility.yul\":6558:6578   */\n      tag_227\n      tag_116\n      jump\t// in\n    tag_227:\n        /* \"#utility.yul\":6548:6578   */\n      swap1\n      pop\n        /* \"#utility.yul\":6587:6620   */\n      tag_228\n        /* \"#utility.yul\":6615:6619   */\n      dup3\n        /* \"#utility.yul\":6607:6613   */\n      dup3\n        /* \"#utility.yul\":6587:6620   */\n      tag_140\n      jump\t// in\n    tag_228:\n        /* \"#utility.yul\":6497:6626   */\n      swap2\n      swap1\n      pop\n      jump\t// out\n        /* \"#utility.yul\":6632:6940   */\n    tag_142:\n        /* \"#utility.yul\":6694:6698   */\n      0x00\n        /* \"#utility.yul\":6784:6802   */\n      0xffffffffffffffff\n        /* \"#utility.yul\":6776:6782   */\n      dup3\n        /* \"#utility.yul\":6773:6803   */\n      gt\n        /* \"#utility.yul\":6770:6826   */\n      iszero\n      tag_230\n      jumpi\n        /* \"#utility.yul\":6806:6824   */\n      tag_231\n      tag_139\n      jump\t// in\n    tag_231:\n        /* \"#utility.yul\":6770:6826   */\n    tag_230:\n        /* \"#utility.yul\":6844:6873   */\n      tag_232\n        /* \"#utility.yul\":6866:6872   */\n      dup3\n        /* \"#utility.yul\":6844:6873   */\n      tag_133\n      jump\t// in\n    tag_232:\n        /* \"#utility.yul\":6836:6873   */\n      swap1\n      pop\n        /* \"#utility.yul\":6928:6932   */\n      0x20\n        /* \"#utility.yul\":6922:6926   */\n      dup2\n        /* \"#utility.yul\":6918:6933   */\n      add\n        /* \"#utility.yul\":6910:6933   */\n      swap1\n      pop\n        /* \"#utility.yul\":6632:6940   */\n      swap2\n      swap1\n      pop\n      jump\t// out\n        /* \"#utility.yul\":6946:7100   */\n    tag_143:\n        /* \"#utility.yul\":7030:7036   */\n      dup3\n        /* \"#utility.yul\":7025:7028   */\n      dup2\n        /* \"#utility.yul\":7020:7023   */\n      dup4\n        /* \"#utility.yul\":7007:7037   */\n      calldatacopy\n        /* \"#utility.yul\":7092:7093   */\n      0x00\n        /* \"#utility.yul\":7083:7089   */\n      dup4\n        /* \"#utility.yul\":7078:7081   */\n      dup4\n        /* \"#utility.yul\":7074:7090   */\n      add\n        /* \"#utility.yul\":7067:7094   */\n      mstore\n        /* \"#utility.yul\":6946:7100   */\n      pop\n      pop\n      pop\n      jump\t// out\n        /* \"#utility.yul\":7106:7518   */\n    tag_144:\n        /* \"#utility.yul\":7184:7189   */\n      0x00\n        /* \"#utility.yul\":7209:7275   */\n      tag_235\n        /* \"#utility.yul\":7225:7274   */\n      tag_236\n        /* \"#utility.yul\":7267:7273   */\n      dup5\n        /* \"#utility.yul\":7225:7274   */\n      tag_142\n      jump\t// in\n    tag_236:\n        /* \"#utility.yul\":7209:7275   */\n      tag_141\n      jump\t// in\n    tag_235:\n        /* \"#utility.yul\":7200:7275   */\n      swap1\n      pop\n        /* \"#utility.yul\":7298:7304   */\n      dup3\n        /* \"#utility.yul\":7291:7296   */\n      dup2\n        /* \"#utility.yul\":7284:7305   */\n      mstore\n        /* \"#utility.yul\":7336:7340   */\n      0x20\n        /* \"#utility.yul\":7329:7334   */\n      dup2\n        /* \"#utility.yul\":7325:7341   */\n      add\n        /* \"#utility.yul\":7374:7377   */\n      dup5\n        /* \"#utility.yul\":7365:7371   */\n      dup5\n        /* \"#utility.yul\":7360:7363   */\n      dup5\n        /* \"#utility.yul\":7356:7372   */\n      add\n        /* \"#utility.yul\":7353:7378   */\n      gt\n        /* \"#utility.yul\":7350:7462   */\n      iszero\n      tag_237\n      jumpi\n        /* \"#utility.yul\":7381:7460   */\n      tag_238\n      tag_138\n      jump\t// in\n    tag_238:\n        /* \"#utility.yul\":7350:7462   */\n    tag_237:\n        /* \"#utility.yul\":7471:7512   */\n      tag_239\n        /* \"#utility.yul\":7505:7511   */\n      dup5\n        /* \"#utility.yul\":7500:7503   */\n      dup3\n        /* \"#utility.yul\":7495:7498   */\n      dup6\n        /* \"#utility.yul\":7471:7512   */\n      tag_143\n      jump\t// in\n    tag_239:\n        /* \"#utility.yul\":7190:7518   */\n      pop\n        /* \"#utility.yul\":7106:7518   */\n      swap4\n      swap3\n      pop\n      pop\n      pop\n      jump\t// out\n        /* \"#utility.yul\":7538:7878   */\n    tag_145:\n        /* \"#utility.yul\":7594:7599   */\n      0x00\n        /* \"#utility.yul\":7643:7646   */\n      dup3\n        /* \"#utility.yul\":7636:7640   */\n      0x1f\n        /* \"#utility.yul\":7628:7634   */\n      dup4\n        /* \"#utility.yul\":7624:7641   */\n      add\n        /* \"#utility.yul\":7620:7647   */\n      slt\n        /* \"#utility.yul\":7610:7732   */\n      tag_241\n      jumpi\n        /* \"#utility.yul\":7651:7730   */\n      tag_242\n      tag_137\n      jump\t// in\n    tag_242:\n        /* \"#utility.yul\":7610:7732   */\n    tag_241:\n        /* \"#utility.yul\":7768:7774   */\n      dup2\n        /* \"#utility.yul\":7755:7775   */\n      calldataload\n        /* \"#utility.yul\":7793:7872   */\n      tag_243\n        /* \"#utility.yul\":7868:7871   */\n      dup5\n        /* \"#utility.yul\":7860:7866   */\n      dup3\n        /* \"#utility.yul\":7853:7857   */\n      0x20\n        /* \"#utility.yul\":7845:7851   */\n      dup7\n        /* \"#utility.yul\":7841:7858   */\n      add\n        /* \"#utility.yul\":7793:7872   */\n      tag_144\n      jump\t// in\n    tag_243:\n        /* \"#utility.yul\":7784:7872   */\n      swap2\n      pop\n        /* \"#utility.yul\":7600:7878   */\n      pop\n        /* \"#utility.yul\":7538:7878   */\n      swap3\n      swap2\n      pop\n      pop\n      jump\t// out\n        /* \"#utility.yul\":7884:8022   */\n    tag_146:\n        /* \"#utility.yul\":7965:7997   */\n      tag_245\n        /* \"#utility.yul\":7991:7996   */\n      dup2\n        /* \"#utility.yul\":7965:7997   */\n      tag_135\n      jump\t// in\n    tag_245:\n        /* \"#utility.yul\":7958:7963   */\n      dup2\n        /* \"#utility.yul\":7955:7998   */\n      eq\n        /* \"#utility.yul\":7945:8016   */\n      tag_246\n      jumpi\n        /* \"#utility.yul\":8012:8013   */\n      0x00\n        /* \"#utility.yul\":8009:8010   */\n      dup1\n        /* \"#utility.yul\":8002:8014   */\n      revert\n        /* \"#utility.yul\":7945:8016   */\n    tag_246:\n        /* \"#utility.yul\":7884:8022   */\n      pop\n      jump\t// out\n        /* \"#utility.yul\":8028:8183   */\n    tag_147:\n        /* \"#utility.yul\":8082:8087   */\n      0x00\n        /* \"#utility.yul\":8120:8126   */\n      dup2\n        /* \"#utility.yul\":8107:8127   */\n      calldataload\n        /* \"#utility.yul\":8098:8127   */\n      swap1\n      pop\n        /* \"#utility.yul\":8136:8177   */\n      tag_248\n        /* \"#utility.yul\":8171:8176   */\n      dup2\n        /* \"#utility.yul\":8136:8177   */\n      tag_146\n      jump\t// in\n    tag_248:\n        /* \"#utility.yul\":8028:8183   */\n      swap3\n      swap2\n      pop\n      pop\n      jump\t// out\n        /* \"#utility.yul\":8189:9004   */\n    tag_54:\n        /* \"#utility.yul\":8284:8290   */\n      0x00\n        /* \"#utility.yul\":8292:8298   */\n      dup1\n        /* \"#utility.yul\":8300:8306   */\n      0x00\n        /* \"#utility.yul\":8349:8351   */\n      0x60\n        /* \"#utility.yul\":8337:8346   */\n      dup5\n        /* \"#utility.yul\":8328:8335   */\n      dup7\n        /* \"#utility.yul\":8324:8347   */\n      sub\n        /* \"#utility.yul\":8320:8352   */\n      slt\n        /* \"#utility.yul\":8317:8436   */\n      iszero\n      tag_250\n      jumpi\n        /* \"#utility.yul\":8355:8434   */\n      tag_251\n      tag_117\n      jump\t// in\n    tag_251:\n        /* \"#utility.yul\":8317:8436   */\n    tag_250:\n        /* \"#utility.yul\":8503:8504   */\n      0x00\n        /* \"#utility.yul\":8492:8501   */\n      dup5\n        /* \"#utility.yul\":8488:8505   */\n      add\n        /* \"#utility.yul\":8475:8506   */\n      calldataload\n        /* \"#utility.yul\":8533:8551   */\n      0xffffffffffffffff\n        /* \"#utility.yul\":8525:8531   */\n      dup2\n        /* \"#utility.yul\":8522:8552   */\n      gt\n        /* \"#utility.yul\":8519:8636   */\n      iszero\n      tag_252\n      jumpi\n        /* \"#utility.yul\":8555:8634   */\n      tag_253\n      tag_118\n      jump\t// in\n    tag_253:\n        /* \"#utility.yul\":8519:8636   */\n    tag_252:\n        /* \"#utility.yul\":8660:8723   */\n      tag_254\n        /* \"#utility.yul\":8715:8722   */\n      dup7\n        /* \"#utility.yul\":8706:8712   */\n      dup3\n        /* \"#utility.yul\":8695:8704   */\n      dup8\n        /* \"#utility.yul\":8691:8713   */\n      add\n        /* \"#utility.yul\":8660:8723   */\n      tag_145\n      jump\t// in\n    tag_254:\n        /* \"#utility.yul\":8650:8723   */\n      swap4\n      pop\n        /* \"#utility.yul\":8446:8733   */\n      pop\n        /* \"#utility.yul\":8772:8774   */\n      0x20\n        /* \"#utility.yul\":8798:8851   */\n      tag_255\n        /* \"#utility.yul\":8843:8850   */\n      dup7\n        /* \"#utility.yul\":8834:8840   */\n      dup3\n        /* \"#utility.yul\":8823:8832   */\n      dup8\n        /* \"#utility.yul\":8819:8841   */\n      add\n        /* \"#utility.yul\":8798:8851   */\n      tag_121\n      jump\t// in\n    tag_255:\n        /* \"#utility.yul\":8788:8851   */\n      swap3\n      pop\n        /* \"#utility.yul\":8743:8861   */\n      pop\n        /* \"#utility.yul\":8900:8902   */\n      0x40\n        /* \"#utility.yul\":8926:8987   */\n      tag_256\n        /* \"#utility.yul\":8979:8986   */\n      dup7\n        /* \"#utility.yul\":8970:8976   */\n      dup3\n        /* \"#utility.yul\":8959:8968   */\n      dup8\n        /* \"#utility.yul\":8955:8977   */\n      add\n        /* \"#utility.yul\":8926:8987   */\n      tag_147\n      jump\t// in\n    tag_256:\n        /* \"#utility.yul\":8916:8987   */\n      swap2\n      pop\n        /* \"#utility.yul\":8871:8997   */\n      pop\n        /* \"#utility.yul\":8189:9004   */\n      swap3\n      pop\n      swap3\n      pop\n      swap3\n      jump\t// out\n        /* \"#utility.yul\":9010:9190   */\n    tag_71:\n        /* \"#utility.yul\":9058:9135   */\n      0x4e487b7100000000000000000000000000000000000000000000000000000000\n        /* \"#utility.yul\":9055:9056   */\n      0x00\n        /* \"#utility.yul\":9048:9136   */\n      mstore\n        /* \"#utility.yul\":9155:9159   */\n      0x32\n        /* \"#utility.yul\":9152:9153   */\n      0x04\n        /* \"#utility.yul\":9145:9160   */\n      mstore\n        /* \"#utility.yul\":9179:9183   */\n      0x24\n        /* \"#utility.yul\":9176:9177   */\n      0x00\n        /* \"#utility.yul\":9169:9184   */\n      revert\n        /* \"#utility.yul\":9196:9376   */\n    tag_148:\n        /* \"#utility.yul\":9244:9321   */\n      0x4e487b7100000000000000000000000000000000000000000000000000000000\n        /* \"#utility.yul\":9241:9242   */\n      0x00\n        /* \"#utility.yul\":9234:9322   */\n      mstore\n        /* \"#utility.yul\":9341:9345   */\n      0x12\n        /* \"#utility.yul\":9338:9339   */\n      0x04\n        /* \"#utility.yul\":9331:9346   */\n      mstore\n        /* \"#utility.yul\":9365:9369   */\n      0x24\n        /* \"#utility.yul\":9362:9363   */\n      0x00\n        /* \"#utility.yul\":9355:9370   */\n      revert\n        /* \"#utility.yul\":9382:9562   */\n    tag_149:\n        /* \"#utility.yul\":9430:9507   */\n      0x4e487b7100000000000000000000000000000000000000000000000000000000\n        /* \"#utility.yul\":9427:9428   */\n      0x00\n        /* \"#utility.yul\":9420:9508   */\n      mstore\n        /* \"#utility.yul\":9527:9531   */\n      0x11\n        /* \"#utility.yul\":9524:9525   */\n      0x04\n        /* \"#utility.yul\":9517:9532   */\n      mstore\n        /* \"#utility.yul\":9551:9555   */\n      0x24\n        /* \"#utility.yul\":9548:9549   */\n      0x00\n        /* \"#utility.yul\":9541:9556   */\n      revert\n        /* \"#utility.yul\":9568:9753   */\n    tag_74:\n        /* \"#utility.yul\":9608:9609   */\n      0x00\n        /* \"#utility.yul\":9625:9645   */\n      tag_261\n        /* \"#utility.yul\":9643:9644   */\n      dup3\n        /* \"#utility.yul\":9625:9645   */\n      tag_119\n      jump\t// in\n    tag_261:\n        /* \"#utility.yul\":9620:9645   */\n      swap2\n      pop\n        /* \"#utility.yul\":9659:9679   */\n      tag_262\n        /* \"#utility.yul\":9677:9678   */\n      dup4\n        /* \"#utility.yul\":9659:9679   */\n      tag_119\n      jump\t// in\n    tag_262:\n        /* \"#utility.yul\":9654:9679   */\n      swap3\n      pop\n        /* \"#utility.yul\":9698:9699   */\n      dup3\n        /* \"#utility.yul\":9688:9723   */\n      tag_263\n      jumpi\n        /* \"#utility.yul\":9703:9721   */\n      tag_264\n      tag_148\n      jump\t// in\n    tag_264:\n        /* \"#utility.yul\":9688:9723   */\n    tag_263:\n        /* \"#utility.yul\":9745:9746   */\n      dup3\n        /* \"#utility.yul\":9742:9743   */\n      dup3\n        /* \"#utility.yul\":9738:9747   */\n      div\n        /* \"#utility.yul\":9733:9747   */\n      swap1\n      pop\n        /* \"#utility.yul\":9568:9753   */\n      swap3\n      swap2\n      pop\n      pop\n      jump\t// out\n        /* \"#utility.yul\":9759:9939   */\n    tag_150:\n        /* \"#utility.yul\":9807:9884   */\n      0x4e487b7100000000000000000000000000000000000000000000000000000000\n        /* \"#utility.yul\":9804:9805   */\n      0x00\n        /* \"#utility.yul\":9797:9885   */\n      mstore\n        /* \"#utility.yul\":9904:9908   */\n      0x22\n        /* \"#utility.yul\":9901:9902   */\n      0x04\n        /* \"#utility.yul\":9894:9909   */\n      mstore\n        /* \"#utility.yul\":9928:9932   */\n      0x24\n        /* \"#utility.yul\":9925:9926   */\n      0x00\n        /* \"#utility.yul\":9918:9933   */\n      revert\n        /* \"#utility.yul\":9945:10265   */\n    tag_84:\n        /* \"#utility.yul\":9989:9995   */\n      0x00\n        /* \"#utility.yul\":10026:10027   */\n      0x02\n        /* \"#utility.yul\":10020:10024   */\n      dup3\n        /* \"#utility.yul\":10016:10028   */\n      div\n        /* \"#utility.yul\":10006:10028   */\n      swap1\n      pop\n        /* \"#utility.yul\":10073:10074   */\n      0x01\n        /* \"#utility.yul\":10067:10071   */\n      dup3\n        /* \"#utility.yul\":10063:10075   */\n      and\n        /* \"#utility.yul\":10094:10112   */\n      dup1\n        /* \"#utility.yul\":10084:10165   */\n      tag_267\n      jumpi\n        /* \"#utility.yul\":10150:10154   */\n      0x7f\n        /* \"#utility.yul\":10142:10148   */\n      dup3\n        /* \"#utility.yul\":10138:10155   */\n      and\n        /* \"#utility.yul\":10128:10155   */\n      swap2\n      pop\n        /* \"#utility.yul\":10084:10165   */\n    tag_267:\n        /* \"#utility.yul\":10212:10214   */\n      0x20\n        /* \"#utility.yul\":10204:10210   */\n      dup3\n        /* \"#utility.yul\":10201:10215   */\n      lt\n        /* \"#utility.yul\":10181:10199   */\n      dup2\n        /* \"#utility.yul\":10178:10216   */\n      sub\n        /* \"#utility.yul\":10175:10259   */\n      tag_268\n      jumpi\n        /* \"#utility.yul\":10231:10249   */\n      tag_269\n      tag_150\n      jump\t// in\n    tag_269:\n        /* \"#utility.yul\":10175:10259   */\n    tag_268:\n        /* \"#utility.yul\":9996:10265   */\n      pop\n        /* \"#utility.yul\":9945:10265   */\n      swap2\n      swap1\n      pop\n      jump\t// out\n        /* \"#utility.yul\":10271:10504   */\n    tag_98:\n        /* \"#utility.yul\":10310:10313   */\n      0x00\n        /* \"#utility.yul\":10333:10357   */\n      tag_271\n        /* \"#utility.yul\":10351:10356   */\n      dup3\n        /* \"#utility.yul\":10333:10357   */\n      tag_119\n      jump\t// in\n    tag_271:\n        /* \"#utility.yul\":10324:10357   */\n      swap2\n      pop\n        /* \"#utility.yul\":10379:10445   */\n      0xffffffffffffffffffffffffffffffffffffffffffffffffffffffffffffffff\n        /* \"#utility.yul\":10372:10377   */\n      dup3\n        /* \"#utility.yul\":10369:10446   */\n      sub\n        /* \"#utility.yul\":10366:10469   */\n      tag_272\n      jumpi\n        /* \"#utility.yul\":10449:10467   */\n      tag_273\n      tag_149\n      jump\t// in\n    tag_273:\n        /* \"#utility.yul\":10366:10469   */\n    tag_272:\n        /* \"#utility.yul\":10496:10497   */\n      0x01\n        /* \"#utility.yul\":10489:10494   */\n      dup3\n        /* \"#utility.yul\":10485:10498   */\n      add\n        /* \"#utility.yul\":10478:10498   */\n      swap1\n      pop\n        /* \"#utility.yul\":10271:10504   */\n      swap2\n      swap1\n      pop\n      jump\t// out\n\n    auxdata: 0xa26469706673582212205b9e3d3443b8b26e5012b1ffdf3150e69ba3ad9466ded18059d3ebd895bada8564736f6c634300080d0033\n}\n",
    "bytecode": {
      "linkReferences": {},
      "object": "60806040523480156200001157600080fd5b50604051620010ca380380620010ca83398181016040528101906200003791906200012c565b80600160006101000a81548173ffffffffffffffffffffffffffffffffffffffff021916908373ffffffffffffffffffffffffffffffffffffffff16021790555081600281905550505062000173565b600080fd5b6000819050919050565b620000a1816200008c565b8114620000ad57600080fd5b50565b600081519050620000c18162000096565b92915050565b600073ffffffffffffffffffffffffffffffffffffffff82169050919050565b6000620000f482620000c7565b9050919050565b6200010681620000e7565b81146200011257600080fd5b50565b6000815190506200012681620000fb565b92915050565b6000806040838503121562000146576200014562000087565b5b60006200015685828601620000b0565b9250506020620001698582860162000115565b9150509250929050565b610f4780620001836000396000f3fe60806040526004361061009c5760003560e01c806381d12c581161006457806381d12c581461018c57806382fde093146101cd5780638a9cfd55146101f8578063937e09b114610221578063d7bb99ba1461024c578063d7d1bbdb146102565761009c565b806303441006146100a15780630a144391146100ca5780633410452a146101075780634051ddac14610132578063481c6a7514610161575b600080fd5b3480156100ad57600080fd5b506100c860048036038101906100c39190610932565b61027f565b005b3480156100d657600080fd5b506100f160048036038101906100ec91906109bd565b6103c8565b6040516100fe9190610a05565b60405180910390f35b34801561011357600080fd5b5061011c6103e8565b6040516101299190610a2f565b60405180910390f35b34801561013e57600080fd5b506101476103f4565b604051610158959493929190610a59565b60405180910390f35b34801561016d57600080fd5b5061017661043d565b6040516101839190610aac565b60405180910390f35b34801561019857600080fd5b506101b360048036038101906101ae9190610932565b610463565b6040516101c4959493929190610b81565b60405180910390f35b3480156101d957600080fd5b506101e261055e565b6040516101ef9190610a2f565b60405180910390f35b34801561020457600080fd5b5061021f600480360381019061021a9190610d3c565b610564565b005b34801561022d57600080fd5b50610236610673565b6040516102439190610a2f565b60405180910390f35b610254610679565b005b34801561026257600080fd5b5061027d60048036038101906102789190610932565b6106f9565b005b600160009054906101000a900473ffffffffffffffffffffffffffffffffffffffff1673ffffffffffffffffffffffffffffffffffffffff163373ffffffffffffffffffffffffffffffffffffffff16146102d957600080fd5b60008082815481106102ee576102ed610dab565b5b90600052602060002090600502019050600260045461030d9190610e38565b81600301541161031c57600080fd5b8060020160149054906101000a900460ff161561033857600080fd5b8060020160009054906101000a900473ffffffffffffffffffffffffffffffffffffffff1673ffffffffffffffffffffffffffffffffffffffff166108fc82600101549081150290604051600060405180830381858888f193505050501580156103a6573d6000803e3d6000fd5b5060018160020160146101000a81548160ff0219169083151502179055505050565b60036020528060005260406000206000915054906101000a900460ff1681565b60008080549050905090565b600080600080600060025447600080549050600454600160009054906101000a900473ffffffffffffffffffffffffffffffffffffffff16945094509450945094509091929394565b600160009054906101000a900473ffffffffffffffffffffffffffffffffffffffff1681565b6000818154811061047357600080fd5b906000526020600020906005020160009150905080600001805461049690610e98565b80601f01602080910402602001604051908101604052809291908181526020018280546104c290610e98565b801561050f5780601f106104e45761010080835404028352916020019161050f565b820191906000526020600020905b8154815290600101906020018083116104f257829003601f168201915b5050505050908060010154908060020160009054906101000a900473ffffffffffffffffffffffffffffffffffffffff16908060020160149054906101000a900460ff16908060030154905085565b60045481565b600160009054906101000a900473ffffffffffffffffffffffffffffffffffffffff1673ffffffffffffffffffffffffffffffffffffffff163373ffffffffffffffffffffffffffffffffffffffff16146105be57600080fd5b6000806001816001815401808255809150500390600052602060002090600502019050838160000190805190602001906105f9929190610845565b50828160010181905550818160020160006101000a81548173ffffffffffffffffffffffffffffffffffffffff021916908373ffffffffffffffffffffffffffffffffffffffff16021790555060008160020160146101000a81548160ff0219169083151502179055506000816003018190555050505050565b60025481565b600254341161068757600080fd5b6001600360003373ffffffffffffffffffffffffffffffffffffffff1673ffffffffffffffffffffffffffffffffffffffff16815260200190815260200160002060006101000a81548160ff021916908315150217905550600460008154809291906106f290610ec9565b9190505550565b600080828154811061070e5761070d610dab565b5b90600052602060002090600502019050600360003373ffffffffffffffffffffffffffffffffffffffff1673ffffffffffffffffffffffffffffffffffffffff16815260200190815260200160002060009054906101000a900460ff1661077457600080fd5b8060040160003373ffffffffffffffffffffffffffffffffffffffff1673ffffffffffffffffffffffffffffffffffffffff16815260200190815260200160002060009054906101000a900460ff16156107cd57600080fd5b60018160040160003373ffffffffffffffffffffffffffffffffffffffff1673ffffffffffffffffffffffffffffffffffffffff16815260200190815260200160002060006101000a81548160ff02191690831515021790555080600301600081548092919061083c90610ec9565b91905055505050565b82805461085190610e98565b90600052602060002090601f01602090048101928261087357600085556108ba565b82601f1061088c57805160ff19168380011785556108ba565b828001600101855582156108ba579182015b828111156108b957825182559160200191906001019061089e565b5b5090506108c791906108cb565b5090565b5b808211156108e45760008160009055506001016108cc565b5090565b6000604051905090565b600080fd5b600080fd5b6000819050919050565b61090f816108fc565b811461091a57600080fd5b50565b60008135905061092c81610906565b92915050565b600060208284031215610948576109476108f2565b5b60006109568482850161091d565b91505092915050565b600073ffffffffffffffffffffffffffffffffffffffff82169050919050565b600061098a8261095f565b9050919050565b61099a8161097f565b81146109a557600080fd5b50565b6000813590506109b781610991565b92915050565b6000602082840312156109d3576109d26108f2565b5b60006109e1848285016109a8565b91505092915050565b60008115159050919050565b6109ff816109ea565b82525050565b6000602082019050610a1a60008301846109f6565b92915050565b610a29816108fc565b82525050565b6000602082019050610a446000830184610a20565b92915050565b610a538161097f565b82525050565b600060a082019050610a6e6000830188610a20565b610a7b6020830187610a20565b610a886040830186610a20565b610a956060830185610a20565b610aa26080830184610a4a565b9695505050505050565b6000602082019050610ac16000830184610a4a565b92915050565b600081519050919050565b600082825260208201905092915050565b60005b83811015610b01578082015181840152602081019050610ae6565b83811115610b10576000848401525b50505050565b6000601f19601f8301169050919050565b6000610b3282610ac7565b610b3c8185610ad2565b9350610b4c818560208601610ae3565b610b5581610b16565b840191505092915050565b6000610b6b8261095f565b9050919050565b610b7b81610b60565b82525050565b600060a0820190508181036000830152610b9b8188610b27565b9050610baa6020830187610a20565b610bb76040830186610b72565b610bc460608301856109f6565b610bd16080830184610a20565b9695505050505050565b600080fd5b600080fd5b7f4e487b7100000000000000000000000000000000000000000000000000000000600052604160045260246000fd5b610c1d82610b16565b810181811067ffffffffffffffff82111715610c3c57610c3b610be5565b5b80604052505050565b6000610c4f6108e8565b9050610c5b8282610c14565b919050565b600067ffffffffffffffff821115610c7b57610c7a610be5565b5b610c8482610b16565b9050602081019050919050565b82818337600083830152505050565b6000610cb3610cae84610c60565b610c45565b905082815260208101848484011115610ccf57610cce610be0565b5b610cda848285610c91565b509392505050565b600082601f830112610cf757610cf6610bdb565b5b8135610d07848260208601610ca0565b91505092915050565b610d1981610b60565b8114610d2457600080fd5b50565b600081359050610d3681610d10565b92915050565b600080600060608486031215610d5557610d546108f2565b5b600084013567ffffffffffffffff811115610d7357610d726108f7565b5b610d7f86828701610ce2565b9350506020610d908682870161091d565b9250506040610da186828701610d27565b9150509250925092565b7f4e487b7100000000000000000000000000000000000000000000000000000000600052603260045260246000fd5b7f4e487b7100000000000000000000000000000000000000000000000000000000600052601260045260246000fd5b7f4e487b7100000000000000000000000000000000000000000000000000000000600052601160045260246000fd5b6000610e43826108fc565b9150610e4e836108fc565b925082610e5e57610e5d610dda565b5b828204905092915050565b7f4e487b7100000000000000000000000000000000000000000000000000000000600052602260045260246000fd5b60006002820490506001821680610eb057607f821691505b602082108103610ec357610ec2610e69565b5b50919050565b6000610ed4826108fc565b91507fffffffffffffffffffffffffffffffffffffffffffffffffffffffffffffffff8203610f0657610f05610e09565b5b60018201905091905056fea26469706673582212205b9e3d3443b8b26e5012b1ffdf3150e69ba3ad9466ded18059d3ebd895bada8564736f6c634300080d0033",
      "opcodes": "PUSH1 0x80 PUSH1 0x40 MSTORE CALLVALUE DUP1 ISZERO PUSH3 0x11 JUMPI PUSH1 0x0 DUP1 REVERT JUMPDEST POP PUSH1 0x40 MLOAD PUSH3 0x10CA CODESIZE SUB DUP1 PUSH3 0x10CA DUP4 CODECOPY DUP2 DUP2 ADD PUSH1 0x40 MSTORE DUP2 ADD SWAP1 PUSH3 0x37 SWAP2 SWAP1 PUSH3 0x12C JUMP JUMPDEST DUP1 PUSH1 0x1 PUSH1 0x0 PUSH2 0x100 EXP DUP2 SLOAD DUP2 PUSH20 0xFFFFFFFFFFFFFFFFFFFFFFFFFFFFFFFFFFFFFFFF MUL NOT AND SWAP1 DUP4 PUSH20 0xFFFFFFFFFFFFFFFFFFFFFFFFFFFFFFFFFFFFFFFF AND MUL OR SWAP1 SSTORE POP DUP2 PUSH1 0x2 DUP2 SWAP1 SSTORE POP POP POP PUSH3 0x173 JUMP JUMPDEST PUSH1 0x0 DUP1 REVERT JUMPDEST PUSH1 0x0 DUP2 SWAP1 POP SWAP2 SWAP1 POP JUMP JUMPDEST PUSH3 0xA1 DUP2 PUSH3 0x8C JUMP JUMPDEST DUP2 EQ PUSH3 0xAD JUMPI PUSH1 0x0 DUP1 REVERT JUMPDEST POP JUMP JUMPDEST PUSH1 0x0 DUP2 MLOAD SWAP1 POP PUSH3 0xC1 DUP2 PUSH3 0x96 JUMP JUMPDEST SWAP3 SWAP2 POP POP JUMP JUMPDEST PUSH1 0x0 PUSH20 0xFFFFFFFFFFFFFFFFFFFFFFFFFFFFFFFFFFFFFFFF DUP3 AND SWAP1 POP SWAP2 SWAP1 POP JUMP JUMPDEST PUSH1 0x0 PUSH3 0xF4 DUP3 PUSH3 0xC7 JUMP JUMPDEST SWAP1 POP SWAP2 SWAP1 POP JUMP JUMPDEST PUSH3 0x106 DUP2 PUSH3 0xE7 JUMP JUMPDEST DUP2 EQ PUSH3 0x112 JUMPI PUSH1 0x0 DUP1 REVERT JUMPDEST POP JUMP JUMPDEST PUSH1 0x0 DUP2 MLOAD SWAP1 POP PUSH3 0x126 DUP2 PUSH3 0xFB JUMP JUMPDEST SWAP3 SWAP2 POP POP JUMP JUMPDEST PUSH1 0x0 DUP1 PUSH1 0x40 DUP4 DUP6 SUB SLT ISZERO PUSH3 0x146 JUMPI PUSH3 0x145 PUSH3 0x87 JUMP JUMPDEST JUMPDEST PUSH1 0x0 PUSH3 0x156 DUP6 DUP3 DUP7 ADD PUSH3 0xB0 JUMP JUMPDEST SWAP3 POP POP PUSH1 0x20 PUSH3 0x169 DUP6 DUP3 DUP7 ADD PUSH3 0x115 JUMP JUMPDEST SWAP2 POP POP SWAP3 POP SWAP3 SWAP1 POP JUMP JUMPDEST PUSH2 0xF47 DUP1 PUSH3 0x183 PUSH1 0x0 CODECOPY PUSH1 0x0 RETURN INVALID PUSH1 0x80 PUSH1 0x40 MSTORE PUSH1 0x4 CALLDATASIZE LT PUSH2 0x9C JUMPI PUSH1 0x0 CALLDATALOAD PUSH1 0xE0 SHR DUP1 PUSH4 0x81D12C58 GT PUSH2 0x64 JUMPI DUP1 PUSH4 0x81D12C58 EQ PUSH2 0x18C JUMPI DUP1 PUSH4 0x82FDE093 EQ PUSH2 0x1CD JUMPI DUP1 PUSH4 0x8A9CFD55 EQ PUSH2 0x1F8 JUMPI DUP1 PUSH4 0x937E09B1 EQ PUSH2 0x221 JUMPI DUP1 PUSH4 0xD7BB99BA EQ PUSH2 0x24C JUMPI DUP1 PUSH4 0xD7D1BBDB EQ PUSH2 0x256 JUMPI PUSH2 0x9C JUMP JUMPDEST DUP1 PUSH4 0x3441006 EQ PUSH2 0xA1 JUMPI DUP1 PUSH4 0xA144391 EQ PUSH2 0xCA JUMPI DUP1 PUSH4 0x3410452A EQ PUSH2 0x107 JUMPI DUP1 PUSH4 0x4051DDAC EQ PUSH2 0x132 JUMPI DUP1 PUSH4 0x481C6A75 EQ PUSH2 0x161 JUMPI JUMPDEST PUSH1 0x0 DUP1 REVERT JUMPDEST CALLVALUE DUP1 ISZERO PUSH2 0xAD JUMPI PUSH1 0x0 DUP1 REVERT JUMPDEST POP PUSH2 0xC8 PUSH1 0x4 DUP1 CALLDATASIZE SUB DUP2 ADD SWAP1 PUSH2 0xC3 SWAP2 SWAP1 PUSH2 0x932 JUMP JUMPDEST PUSH2 0x27F JUMP JUMPDEST STOP JUMPDEST CALLVALUE DUP1 ISZERO PUSH2 0xD6 JUMPI PUSH1 0x0 DUP1 REVERT JUMPDEST POP PUSH2 0xF1 PUSH1 0x4 DUP1 CALLDATASIZE SUB DUP2 ADD SWAP1 PUSH2 0xEC SWAP2 SWAP1 PUSH2 0x9BD JUMP JUMPDEST PUSH2 0x3C8 JUMP JUMPDEST PUSH1 0x40 MLOAD PUSH2 0xFE SWAP2 SWAP1 PUSH2 0xA05 JUMP JUMPDEST PUSH1 0x40 MLOAD DUP1 SWAP2 SUB SWAP1 RETURN JUMPDEST CALLVALUE DUP1 ISZERO PUSH2 0x113 JUMPI PUSH1 0x0 DUP1 REVERT JUMPDEST POP PUSH2 0x11C PUSH2 0x3E8 JUMP JUMPDEST PUSH1 0x40 MLOAD PUSH2 0x129 SWAP2 SWAP1 PUSH2 0xA2F JUMP JUMPDEST PUSH1 0x40 MLOAD DUP1 SWAP2 SUB SWAP1 RETURN JUMPDEST CALLVALUE DUP1 ISZERO PUSH2 0x13E JUMPI PUSH1 0x0 DUP1 REVERT JUMPDEST POP PUSH2 0x147 PUSH2 0x3F4 JUMP JUMPDEST PUSH1 0x40 MLOAD PUSH2 0x158 SWAP6 SWAP5 SWAP4 SWAP3 SWAP2 SWAP1 PUSH2 0xA59 JUMP JUMPDEST PUSH1 0x40 MLOAD DUP1 SWAP2 SUB SWAP1 RETURN JUMPDEST CALLVALUE DUP1 ISZERO PUSH2 0x16D JUMPI PUSH1 0x0 DUP1 REVERT JUMPDEST POP PUSH2 0x176 PUSH2 0x43D JUMP JUMPDEST PUSH1 0x40 MLOAD PUSH2 0x183 SWAP2 SWAP1 PUSH2 0xAAC JUMP JUMPDEST PUSH1 0x40 MLOAD DUP1 SWAP2 SUB SWAP1 RETURN JUMPDEST CALLVALUE DUP1 ISZERO PUSH2 0x198 JUMPI PUSH1 0x0 DUP1 REVERT JUMPDEST POP PUSH2 0x1B3 PUSH1 0x4 DUP1 CALLDATASIZE SUB DUP2 ADD SWAP1 PUSH2 0x1AE SWAP2 SWAP1 PUSH2 0x932 JUMP JUMPDEST PUSH2 0x463 JUMP JUMPDEST PUSH1 0x40 MLOAD PUSH2 0x1C4 SWAP6 SWAP5 SWAP4 SWAP3 SWAP2 SWAP1 PUSH2 0xB81 JUMP JUMPDEST PUSH1 0x40 MLOAD DUP1 SWAP2 SUB SWAP1 RETURN JUMPDEST CALLVALUE DUP1 ISZERO PUSH2 0x1D9 JUMPI PUSH1 0x0 DUP1 REVERT JUMPDEST POP PUSH2 0x1E2 PUSH2 0x55E JUMP JUMPDEST PUSH1 0x40 MLOAD PUSH2 0x1EF SWAP2 SWAP1 PUSH2 0xA2F JUMP JUMPDEST PUSH1 0x40 MLOAD DUP1 SWAP2 SUB SWAP1 RETURN JUMPDEST CALLVALUE DUP1 ISZERO PUSH2 0x204 JUMPI PUSH1 0x0 DUP1 REVERT JUMPDEST POP PUSH2 0x21F PUSH1 0x4 DUP1 CALLDATASIZE SUB DUP2 ADD SWAP1 PUSH2 0x21A SWAP2 SWAP1 PUSH2 0xD3C JUMP JUMPDEST PUSH2 0x564 JUMP JUMPDEST STOP JUMPDEST CALLVALUE DUP1 ISZERO PUSH2 0x22D JUMPI PUSH1 0x0 DUP1 REVERT JUMPDEST POP PUSH2 0x236 PUSH2 0x673 JUMP JUMPDEST PUSH1 0x40 MLOAD PUSH2 0x243 SWAP2 SWAP1 PUSH2 0xA2F JUMP JUMPDEST PUSH1 0x40 MLOAD DUP1 SWAP2 SUB SWAP1 RETURN JUMPDEST PUSH2 0x254 PUSH2 0x679 JUMP JUMPDEST STOP JUMPDEST CALLVALUE DUP1 ISZERO PUSH2 0x262 JUMPI PUSH1 0x0 DUP1 REVERT JUMPDEST POP PUSH2 0x27D PUSH1 0x4 DUP1 CALLDATASIZE SUB DUP2 ADD SWAP1 PUSH2 0x278 SWAP2 SWAP1 PUSH2 0x932 JUMP JUMPDEST PUSH2 0x6F9 JUMP JUMPDEST STOP JUMPDEST PUSH1 0x1 PUSH1 0x0 SWAP1 SLOAD SWAP1 PUSH2 0x100 EXP SWAP1 DIV PUSH20 0xFFFFFFFFFFFFFFFFFFFFFFFFFFFFFFFFFFFFFFFF AND PUSH20 0xFFFFFFFFFFFFFFFFFFFFFFFFFFFFFFFFFFFFFFFF AND CALLER PUSH20 0xFFFFFFFFFFFFFFFFFFFFFFFFFFFFFFFFFFFFFFFF AND EQ PUSH2 0x2D9 JUMPI PUSH1 0x0 DUP1 REVERT JUMPDEST PUSH1 0x0 DUP1 DUP3 DUP2 SLOAD DUP2 LT PUSH2 0x2EE JUMPI PUSH2 0x2ED PUSH2 0xDAB JUMP JUMPDEST JUMPDEST SWAP1 PUSH1 0x0 MSTORE PUSH1 0x20 PUSH1 0x0 KECCAK256 SWAP1 PUSH1 0x5 MUL ADD SWAP1 POP PUSH1 0x2 PUSH1 0x4 SLOAD PUSH2 0x30D SWAP2 SWAP1 PUSH2 0xE38 JUMP JUMPDEST DUP2 PUSH1 0x3 ADD SLOAD GT PUSH2 0x31C JUMPI PUSH1 0x0 DUP1 REVERT JUMPDEST DUP1 PUSH1 0x2 ADD PUSH1 0x14 SWAP1 SLOAD SWAP1 PUSH2 0x100 EXP SWAP1 DIV PUSH1 0xFF AND ISZERO PUSH2 0x338 JUMPI PUSH1 0x0 DUP1 REVERT JUMPDEST DUP1 PUSH1 0x2 ADD PUSH1 0x0 SWAP1 SLOAD SWAP1 PUSH2 0x100 EXP SWAP1 DIV PUSH20 0xFFFFFFFFFFFFFFFFFFFFFFFFFFFFFFFFFFFFFFFF AND PUSH20 0xFFFFFFFFFFFFFFFFFFFFFFFFFFFFFFFFFFFFFFFF AND PUSH2 0x8FC DUP3 PUSH1 0x1 ADD SLOAD SWAP1 DUP2 ISZERO MUL SWAP1 PUSH1 0x40 MLOAD PUSH1 0x0 PUSH1 0x40 MLOAD DUP1 DUP4 SUB DUP2 DUP6 DUP9 DUP9 CALL SWAP4 POP POP POP POP ISZERO DUP1 ISZERO PUSH2 0x3A6 JUMPI RETURNDATASIZE PUSH1 0x0 DUP1 RETURNDATACOPY RETURNDATASIZE PUSH1 0x0 REVERT JUMPDEST POP PUSH1 0x1 DUP2 PUSH1 0x2 ADD PUSH1 0x14 PUSH2 0x100 EXP DUP2 SLOAD DUP2 PUSH1 0xFF MUL NOT AND SWAP1 DUP4 ISZERO ISZERO MUL OR SWAP1 SSTORE POP POP POP JUMP JUMPDEST PUSH1 0x3 PUSH1 0x20 MSTORE DUP1 PUSH1 0x0 MSTORE PUSH1 0x40 PUSH1 0x0 KECCAK256 PUSH1 0x0 SWAP2 POP SLOAD SWAP1 PUSH2 0x100 EXP SWAP1 DIV PUSH1 0xFF AND DUP2 JUMP JUMPDEST PUSH1 0x0 DUP1 DUP1 SLOAD SWAP1 POP SWAP1 POP SWAP1 JUMP JUMPDEST PUSH1 0x0 DUP1 PUSH1 0x0 DUP1 PUSH1 0x0 PUSH1 0x2 SLOAD SELFBALANCE PUSH1 0x0 DUP1 SLOAD SWAP1 POP PUSH1 0x4 SLOAD PUSH1 0x1 PUSH1 0x0 SWAP1 SLOAD SWAP1 PUSH2 0x100 EXP SWAP1 DIV PUSH20 0xFFFFFFFFFFFFFFFFFFFFFFFFFFFFFFFFFFFFFFFF AND SWAP5 POP SWAP5 POP SWAP5 POP SWAP5 POP SWAP5 POP SWAP1 SWAP2 SWAP3 SWAP4 SWAP5 JUMP JUMPDEST PUSH1 0x1 PUSH1 0x0 SWAP1 SLOAD SWAP1 PUSH2 0x100 EXP SWAP1 DIV PUSH20 0xFFFFFFFFFFFFFFFFFFFFFFFFFFFFFFFFFFFFFFFF AND DUP2 JUMP JUMPDEST PUSH1 0x0 DUP2 DUP2 SLOAD DUP2 LT PUSH2 0x473 JUMPI PUSH1 0x0 DUP1 REVERT JUMPDEST SWAP1 PUSH1 0x0 MSTORE PUSH1 0x20 PUSH1 0x0 KECCAK256 SWAP1 PUSH1 0x5 MUL ADD PUSH1 0x0 SWAP2 POP SWAP1 POP DUP1 PUSH1 0x0 ADD DUP1 SLOAD PUSH2 0x496 SWAP1 PUSH2 0xE98 JUMP JUMPDEST DUP1 PUSH1 0x1F ADD PUSH1 0x20 DUP1 SWAP2 DIV MUL PUSH1 0x20 ADD PUSH1 0x40 MLOAD SWAP1 DUP2 ADD PUSH1 0x40 MSTORE DUP1 SWAP3 SWAP2 SWAP1 DUP2 DUP2 MSTORE PUSH1 0x20 ADD DUP3 DUP1 SLOAD PUSH2 0x4C2 SWAP1 PUSH2 0xE98 JUMP JUMPDEST DUP1 ISZERO PUSH2 0x50F JUMPI DUP1 PUSH1 0x1F LT PUSH2 0x4E4 JUMPI PUSH2 0x100 DUP1 DUP4 SLOAD DIV MUL DUP4 MSTORE SWAP2 PUSH1 0x20 ADD SWAP2 PUSH2 0x50F JUMP JUMPDEST DUP3 ADD SWAP2 SWAP1 PUSH1 0x0 MSTORE PUSH1 0x20 PUSH1 0x0 KECCAK256 SWAP1 JUMPDEST DUP2 SLOAD DUP2 MSTORE SWAP1 PUSH1 0x1 ADD SWAP1 PUSH1 0x20 ADD DUP1 DUP4 GT PUSH2 0x4F2 JUMPI DUP3 SWAP1 SUB PUSH1 0x1F AND DUP3 ADD SWAP2 JUMPDEST POP POP POP POP POP SWAP1 DUP1 PUSH1 0x1 ADD SLOAD SWAP1 DUP1 PUSH1 0x2 ADD PUSH1 0x0 SWAP1 SLOAD SWAP1 PUSH2 0x100 EXP SWAP1 DIV PUSH20 0xFFFFFFFFFFFFFFFFFFFFFFFFFFFFFFFFFFFFFFFF AND SWAP1 DUP1 PUSH1 0x2 ADD PUSH1 0x14 SWAP1 SLOAD SWAP1 PUSH2 0x100 EXP SWAP1 DIV PUSH1 0xFF AND SWAP1 DUP1 PUSH1 0x3 ADD SLOAD SWAP1 POP DUP6 JUMP JUMPDEST PUSH1 0x4 SLOAD DUP2 JUMP JUMPDEST PUSH1 0x1 PUSH1 0x0 SWAP1 SLOAD SWAP1 PUSH2 0x100 EXP SWAP1 DIV PUSH20 0xFFFFFFFFFFFFFFFFFFFFFFFFFFFFFFFFFFFFFFFF AND PUSH20 0xFFFFFFFFFFFFFFFFFFFFFFFFFFFFFFFFFFFFFFFF AND CALLER PUSH20 0xFFFFFFFFFFFFFFFFFFFFFFFFFFFFFFFFFFFFFFFF AND EQ PUSH2 0x5BE JUMPI PUSH1 0x0 DUP1 REVERT JUMPDEST PUSH1 0x0 DUP1 PUSH1 0x1 DUP2 PUSH1 0x1 DUP2 SLOAD ADD DUP1 DUP3 SSTORE DUP1 SWAP2 POP POP SUB SWAP1 PUSH1 0x0 MSTORE PUSH1 0x20 PUSH1 0x0 KECCAK256 SWAP1 PUSH1 0x5 MUL ADD SWAP1 POP DUP4 DUP2 PUSH1 0x0 ADD SWAP1 DUP1 MLOAD SWAP1 PUSH1 0x20 ADD SWAP1 PUSH2 0x5F9 SWAP3 SWAP2 SWAP1 PUSH2 0x845 JUMP JUMPDEST POP DUP3 DUP2 PUSH1 0x1 ADD DUP2 SWAP1 SSTORE POP DUP2 DUP2 PUSH1 0x2 ADD PUSH1 0x0 PUSH2 0x100 EXP DUP2 SLOAD DUP2 PUSH20 0xFFFFFFFFFFFFFFFFFFFFFFFFFFFFFFFFFFFFFFFF MUL NOT AND SWAP1 DUP4 PUSH20 0xFFFFFFFFFFFFFFFFFFFFFFFFFFFFFFFFFFFFFFFF AND MUL OR SWAP1 SSTORE POP PUSH1 0x0 DUP2 PUSH1 0x2 ADD PUSH1 0x14 PUSH2 0x100 EXP DUP2 SLOAD DUP2 PUSH1 0xFF MUL NOT AND SWAP1 DUP4 ISZERO ISZERO MUL OR SWAP1 SSTORE POP PUSH1 0x0 DUP2 PUSH1 0x3 ADD DUP2 SWAP1 SSTORE POP POP POP POP POP JUMP JUMPDEST PUSH1 0x2 SLOAD DUP2 JUMP JUMPDEST PUSH1 0x2 SLOAD CALLVALUE GT PUSH2 0x687 JUMPI PUSH1 0x0 DUP1 REVERT JUMPDEST PUSH1 0x1 PUSH1 0x3 PUSH1 0x0 CALLER PUSH20 0xFFFFFFFFFFFFFFFFFFFFFFFFFFFFFFFFFFFFFFFF AND PUSH20 0xFFFFFFFFFFFFFFFFFFFFFFFFFFFFFFFFFFFFFFFF AND DUP2 MSTORE PUSH1 0x20 ADD SWAP1 DUP2 MSTORE PUSH1 0x20 ADD PUSH1 0x0 KECCAK256 PUSH1 0x0 PUSH2 0x100 EXP DUP2 SLOAD DUP2 PUSH1 0xFF MUL NOT AND SWAP1 DUP4 ISZERO ISZERO MUL OR SWAP1 SSTORE POP PUSH1 0x4 PUSH1 0x0 DUP2 SLOAD DUP1 SWAP3 SWAP2 SWAP1 PUSH2 0x6F2 SWAP1 PUSH2 0xEC9 JUMP JUMPDEST SWAP2 SWAP1 POP SSTORE POP JUMP JUMPDEST PUSH1 0x0 DUP1 DUP3 DUP2 SLOAD DUP2 LT PUSH2 0x70E JUMPI PUSH2 0x70D PUSH2 0xDAB JUMP JUMPDEST JUMPDEST SWAP1 PUSH1 0x0 MSTORE PUSH1 0x20 PUSH1 0x0 KECCAK256 SWAP1 PUSH1 0x5 MUL ADD SWAP1 POP PUSH1 0x3 PUSH1 0x0 CALLER PUSH20 0xFFFFFFFFFFFFFFFFFFFFFFFFFFFFFFFFFFFFFFFF AND PUSH20 0xFFFFFFFFFFFFFFFFFFFFFFFFFFFFFFFFFFFFFFFF AND DUP2 MSTORE PUSH1 0x20 ADD SWAP1 DUP2 MSTORE PUSH1 0x20 ADD PUSH1 0x0 KECCAK256 PUSH1 0x0 SWAP1 SLOAD SWAP1 PUSH2 0x100 EXP SWAP1 DIV PUSH1 0xFF AND PUSH2 0x774 JUMPI PUSH1 0x0 DUP1 REVERT JUMPDEST DUP1 PUSH1 0x4 ADD PUSH1 0x0 CALLER PUSH20 0xFFFFFFFFFFFFFFFFFFFFFFFFFFFFFFFFFFFFFFFF AND PUSH20 0xFFFFFFFFFFFFFFFFFFFFFFFFFFFFFFFFFFFFFFFF AND DUP2 MSTORE PUSH1 0x20 ADD SWAP1 DUP2 MSTORE PUSH1 0x20 ADD PUSH1 0x0 KECCAK256 PUSH1 0x0 SWAP1 SLOAD SWAP1 PUSH2 0x100 EXP SWAP1 DIV PUSH1 0xFF AND ISZERO PUSH2 0x7CD JUMPI PUSH1 0x0 DUP1 REVERT JUMPDEST PUSH1 0x1 DUP2 PUSH1 0x4 ADD PUSH1 0x0 CALLER PUSH20 0xFFFFFFFFFFFFFFFFFFFFFFFFFFFFFFFFFFFFFFFF AND PUSH20 0xFFFFFFFFFFFFFFFFFFFFFFFFFFFFFFFFFFFFFFFF AND DUP2 MSTORE PUSH1 0x20 ADD SWAP1 DUP2 MSTORE PUSH1 0x20 ADD PUSH1 0x0 KECCAK256 PUSH1 0x0 PUSH2 0x100 EXP DUP2 SLOAD DUP2 PUSH1 0xFF MUL NOT AND SWAP1 DUP4 ISZERO ISZERO MUL OR SWAP1 SSTORE POP DUP1 PUSH1 0x3 ADD PUSH1 0x0 DUP2 SLOAD DUP1 SWAP3 SWAP2 SWAP1 PUSH2 0x83C SWAP1 PUSH2 0xEC9 JUMP JUMPDEST SWAP2 SWAP1 POP SSTORE POP POP POP JUMP JUMPDEST DUP3 DUP1 SLOAD PUSH2 0x851 SWAP1 PUSH2 0xE98 JUMP JUMPDEST SWAP1 PUSH1 0x0 MSTORE PUSH1 0x20 PUSH1 0x0 KECCAK256 SWAP1 PUSH1 0x1F ADD PUSH1 0x20 SWAP1 DIV DUP2 ADD SWAP3 DUP3 PUSH2 0x873 JUMPI PUSH1 0x0 DUP6 SSTORE PUSH2 0x8BA JUMP JUMPDEST DUP3 PUSH1 0x1F LT PUSH2 0x88C JUMPI DUP1 MLOAD PUSH1 0xFF NOT AND DUP4 DUP1 ADD OR DUP6 SSTORE PUSH2 0x8BA JUMP JUMPDEST DUP3 DUP1 ADD PUSH1 0x1 ADD DUP6 SSTORE DUP3 ISZERO PUSH2 0x8BA JUMPI SWAP2 DUP3 ADD JUMPDEST DUP3 DUP2 GT ISZERO PUSH2 0x8B9 JUMPI DUP3 MLOAD DUP3 SSTORE SWAP2 PUSH1 0x20 ADD SWAP2 SWAP1 PUSH1 0x1 ADD SWAP1 PUSH2 0x89E JUMP JUMPDEST JUMPDEST POP SWAP1 POP PUSH2 0x8C7 SWAP2 SWAP1 PUSH2 0x8CB JUMP JUMPDEST POP SWAP1 JUMP JUMPDEST JUMPDEST DUP1 DUP3 GT ISZERO PUSH2 0x8E4 JUMPI PUSH1 0x0 DUP2 PUSH1 0x0 SWAP1 SSTORE POP PUSH1 0x1 ADD PUSH2 0x8CC JUMP JUMPDEST POP SWAP1 JUMP JUMPDEST PUSH1 0x0 PUSH1 0x40 MLOAD SWAP1 POP SWAP1 JUMP JUMPDEST PUSH1 0x0 DUP1 REVERT JUMPDEST PUSH1 0x0 DUP1 REVERT JUMPDEST PUSH1 0x0 DUP2 SWAP1 POP SWAP2 SWAP1 POP JUMP JUMPDEST PUSH2 0x90F DUP2 PUSH2 0x8FC JUMP JUMPDEST DUP2 EQ PUSH2 0x91A JUMPI PUSH1 0x0 DUP1 REVERT JUMPDEST POP JUMP JUMPDEST PUSH1 0x0 DUP2 CALLDATALOAD SWAP1 POP PUSH2 0x92C DUP2 PUSH2 0x906 JUMP JUMPDEST SWAP3 SWAP2 POP POP JUMP JUMPDEST PUSH1 0x0 PUSH1 0x20 DUP3 DUP5 SUB SLT ISZERO PUSH2 0x948 JUMPI PUSH2 0x947 PUSH2 0x8F2 JUMP JUMPDEST JUMPDEST PUSH1 0x0 PUSH2 0x956 DUP5 DUP3 DUP6 ADD PUSH2 0x91D JUMP JUMPDEST SWAP2 POP POP SWAP3 SWAP2 POP POP JUMP JUMPDEST PUSH1 0x0 PUSH20 0xFFFFFFFFFFFFFFFFFFFFFFFFFFFFFFFFFFFFFFFF DUP3 AND SWAP1 POP SWAP2 SWAP1 POP JUMP JUMPDEST PUSH1 0x0 PUSH2 0x98A DUP3 PUSH2 0x95F JUMP JUMPDEST SWAP1 POP SWAP2 SWAP1 POP JUMP JUMPDEST PUSH2 0x99A DUP2 PUSH2 0x97F JUMP JUMPDEST DUP2 EQ PUSH2 0x9A5 JUMPI PUSH1 0x0 DUP1 REVERT JUMPDEST POP JUMP JUMPDEST PUSH1 0x0 DUP2 CALLDATALOAD SWAP1 POP PUSH2 0x9B7 DUP2 PUSH2 0x991 JUMP JUMPDEST SWAP3 SWAP2 POP POP JUMP JUMPDEST PUSH1 0x0 PUSH1 0x20 DUP3 DUP5 SUB SLT ISZERO PUSH2 0x9D3 JUMPI PUSH2 0x9D2 PUSH2 0x8F2 JUMP JUMPDEST JUMPDEST PUSH1 0x0 PUSH2 0x9E1 DUP5 DUP3 DUP6 ADD PUSH2 0x9A8 JUMP JUMPDEST SWAP2 POP POP SWAP3 SWAP2 POP POP JUMP JUMPDEST PUSH1 0x0 DUP2 ISZERO ISZERO SWAP1 POP SWAP2 SWAP1 POP JUMP JUMPDEST PUSH2 0x9FF DUP2 PUSH2 0x9EA JUMP JUMPDEST DUP3 MSTORE POP POP JUMP JUMPDEST PUSH1 0x0 PUSH1 0x20 DUP3 ADD SWAP1 POP PUSH2 0xA1A PUSH1 0x0 DUP4 ADD DUP5 PUSH2 0x9F6 JUMP JUMPDEST SWAP3 SWAP2 POP POP JUMP JUMPDEST PUSH2 0xA29 DUP2 PUSH2 0x8FC JUMP JUMPDEST DUP3 MSTORE POP POP JUMP JUMPDEST PUSH1 0x0 PUSH1 0x20 DUP3 ADD SWAP1 POP PUSH2 0xA44 PUSH1 0x0 DUP4 ADD DUP5 PUSH2 0xA20 JUMP JUMPDEST SWAP3 SWAP2 POP POP JUMP JUMPDEST PUSH2 0xA53 DUP2 PUSH2 0x97F JUMP JUMPDEST DUP3 MSTORE POP POP JUMP JUMPDEST PUSH1 0x0 PUSH1 0xA0 DUP3 ADD SWAP1 POP PUSH2 0xA6E PUSH1 0x0 DUP4 ADD DUP9 PUSH2 0xA20 JUMP JUMPDEST PUSH2 0xA7B PUSH1 0x20 DUP4 ADD DUP8 PUSH2 0xA20 JUMP JUMPDEST PUSH2 0xA88 PUSH1 0x40 DUP4 ADD DUP7 PUSH2 0xA20 JUMP JUMPDEST PUSH2 0xA95 PUSH1 0x60 DUP4 ADD DUP6 PUSH2 0xA20 JUMP JUMPDEST PUSH2 0xAA2 PUSH1 0x80 DUP4 ADD DUP5 PUSH2 0xA4A JUMP JUMPDEST SWAP7 SWAP6 POP POP POP POP POP POP JUMP JUMPDEST PUSH1 0x0 PUSH1 0x20 DUP3 ADD SWAP1 POP PUSH2 0xAC1 PUSH1 0x0 DUP4 ADD DUP5 PUSH2 0xA4A JUMP JUMPDEST SWAP3 SWAP2 POP POP JUMP JUMPDEST PUSH1 0x0 DUP2 MLOAD SWAP1 POP SWAP2 SWAP1 POP JUMP JUMPDEST PUSH1 0x0 DUP3 DUP3 MSTORE PUSH1 0x20 DUP3 ADD SWAP1 POP SWAP3 SWAP2 POP POP JUMP JUMPDEST PUSH1 0x0 JUMPDEST DUP4 DUP2 LT ISZERO PUSH2 0xB01 JUMPI DUP1 DUP3 ADD MLOAD DUP2 DUP5 ADD MSTORE PUSH1 0x20 DUP2 ADD SWAP1 POP PUSH2 0xAE6 JUMP JUMPDEST DUP4 DUP2 GT ISZERO PUSH2 0xB10 JUMPI PUSH1 0x0 DUP5 DUP5 ADD MSTORE JUMPDEST POP POP POP POP JUMP JUMPDEST PUSH1 0x0 PUSH1 0x1F NOT PUSH1 0x1F DUP4 ADD AND SWAP1 POP SWAP2 SWAP1 POP JUMP JUMPDEST PUSH1 0x0 PUSH2 0xB32 DUP3 PUSH2 0xAC7 JUMP JUMPDEST PUSH2 0xB3C DUP2 DUP6 PUSH2 0xAD2 JUMP JUMPDEST SWAP4 POP PUSH2 0xB4C DUP2 DUP6 PUSH1 0x20 DUP7 ADD PUSH2 0xAE3 JUMP JUMPDEST PUSH2 0xB55 DUP2 PUSH2 0xB16 JUMP JUMPDEST DUP5 ADD SWAP2 POP POP SWAP3 SWAP2 POP POP JUMP JUMPDEST PUSH1 0x0 PUSH2 0xB6B DUP3 PUSH2 0x95F JUMP JUMPDEST SWAP1 POP SWAP2 SWAP1 POP JUMP JUMPDEST PUSH2 0xB7B DUP2 PUSH2 0xB60 JUMP JUMPDEST DUP3 MSTORE POP POP JUMP JUMPDEST PUSH1 0x0 PUSH1 0xA0 DUP3 ADD SWAP1 POP DUP2 DUP2 SUB PUSH1 0x0 DUP4 ADD MSTORE PUSH2 0xB9B DUP2 DUP9 PUSH2 0xB27 JUMP JUMPDEST SWAP1 POP PUSH2 0xBAA PUSH1 0x20 DUP4 ADD DUP8 PUSH2 0xA20 JUMP JUMPDEST PUSH2 0xBB7 PUSH1 0x40 DUP4 ADD DUP7 PUSH2 0xB72 JUMP JUMPDEST PUSH2 0xBC4 PUSH1 0x60 DUP4 ADD DUP6 PUSH2 0x9F6 JUMP JUMPDEST PUSH2 0xBD1 PUSH1 0x80 DUP4 ADD DUP5 PUSH2 0xA20 JUMP JUMPDEST SWAP7 SWAP6 POP POP POP POP POP POP JUMP JUMPDEST PUSH1 0x0 DUP1 REVERT JUMPDEST PUSH1 0x0 DUP1 REVERT JUMPDEST PUSH32 0x4E487B7100000000000000000000000000000000000000000000000000000000 PUSH1 0x0 MSTORE PUSH1 0x41 PUSH1 0x4 MSTORE PUSH1 0x24 PUSH1 0x0 REVERT JUMPDEST PUSH2 0xC1D DUP3 PUSH2 0xB16 JUMP JUMPDEST DUP2 ADD DUP2 DUP2 LT PUSH8 0xFFFFFFFFFFFFFFFF DUP3 GT OR ISZERO PUSH2 0xC3C JUMPI PUSH2 0xC3B PUSH2 0xBE5 JUMP JUMPDEST JUMPDEST DUP1 PUSH1 0x40 MSTORE POP POP POP JUMP JUMPDEST PUSH1 0x0 PUSH2 0xC4F PUSH2 0x8E8 JUMP JUMPDEST SWAP1 POP PUSH2 0xC5B DUP3 DUP3 PUSH2 0xC14 JUMP JUMPDEST SWAP2 SWAP1 POP JUMP JUMPDEST PUSH1 0x0 PUSH8 0xFFFFFFFFFFFFFFFF DUP3 GT ISZERO PUSH2 0xC7B JUMPI PUSH2 0xC7A PUSH2 0xBE5 JUMP JUMPDEST JUMPDEST PUSH2 0xC84 DUP3 PUSH2 0xB16 JUMP JUMPDEST SWAP1 POP PUSH1 0x20 DUP2 ADD SWAP1 POP SWAP2 SWAP1 POP JUMP JUMPDEST DUP3 DUP2 DUP4 CALLDATACOPY PUSH1 0x0 DUP4 DUP4 ADD MSTORE POP POP POP JUMP JUMPDEST PUSH1 0x0 PUSH2 0xCB3 PUSH2 0xCAE DUP5 PUSH2 0xC60 JUMP JUMPDEST PUSH2 0xC45 JUMP JUMPDEST SWAP1 POP DUP3 DUP2 MSTORE PUSH1 0x20 DUP2 ADD DUP5 DUP5 DUP5 ADD GT ISZERO PUSH2 0xCCF JUMPI PUSH2 0xCCE PUSH2 0xBE0 JUMP JUMPDEST JUMPDEST PUSH2 0xCDA DUP5 DUP3 DUP6 PUSH2 0xC91 JUMP JUMPDEST POP SWAP4 SWAP3 POP POP POP JUMP JUMPDEST PUSH1 0x0 DUP3 PUSH1 0x1F DUP4 ADD SLT PUSH2 0xCF7 JUMPI PUSH2 0xCF6 PUSH2 0xBDB JUMP JUMPDEST JUMPDEST DUP2 CALLDATALOAD PUSH2 0xD07 DUP5 DUP3 PUSH1 0x20 DUP7 ADD PUSH2 0xCA0 JUMP JUMPDEST SWAP2 POP POP SWAP3 SWAP2 POP POP JUMP JUMPDEST PUSH2 0xD19 DUP2 PUSH2 0xB60 JUMP JUMPDEST DUP2 EQ PUSH2 0xD24 JUMPI PUSH1 0x0 DUP1 REVERT JUMPDEST POP JUMP JUMPDEST PUSH1 0x0 DUP2 CALLDATALOAD SWAP1 POP PUSH2 0xD36 DUP2 PUSH2 0xD10 JUMP JUMPDEST SWAP3 SWAP2 POP POP JUMP JUMPDEST PUSH1 0x0 DUP1 PUSH1 0x0 PUSH1 0x60 DUP5 DUP7 SUB SLT ISZERO PUSH2 0xD55 JUMPI PUSH2 0xD54 PUSH2 0x8F2 JUMP JUMPDEST JUMPDEST PUSH1 0x0 DUP5 ADD CALLDATALOAD PUSH8 0xFFFFFFFFFFFFFFFF DUP2 GT ISZERO PUSH2 0xD73 JUMPI PUSH2 0xD72 PUSH2 0x8F7 JUMP JUMPDEST JUMPDEST PUSH2 0xD7F DUP7 DUP3 DUP8 ADD PUSH2 0xCE2 JUMP JUMPDEST SWAP4 POP POP PUSH1 0x20 PUSH2 0xD90 DUP7 DUP3 DUP8 ADD PUSH2 0x91D JUMP JUMPDEST SWAP3 POP POP PUSH1 0x40 PUSH2 0xDA1 DUP7 DUP3 DUP8 ADD PUSH2 0xD27 JUMP JUMPDEST SWAP2 POP POP SWAP3 POP SWAP3 POP SWAP3 JUMP JUMPDEST PUSH32 0x4E487B7100000000000000000000000000000000000000000000000000000000 PUSH1 0x0 MSTORE PUSH1 0x32 PUSH1 0x4 MSTORE PUSH1 0x24 PUSH1 0x0 REVERT JUMPDEST PUSH32 0x4E487B7100000000000000000000000000000000000000000000000000000000 PUSH1 0x0 MSTORE PUSH1 0x12 PUSH1 0x4 MSTORE PUSH1 0x24 PUSH1 0x0 REVERT JUMPDEST PUSH32 0x4E487B7100000000000000000000000000000000000000000000000000000000 PUSH1 0x0 MSTORE PUSH1 0x11 PUSH1 0x4 MSTORE PUSH1 0x24 PUSH1 0x0 REVERT JUMPDEST PUSH1 0x0 PUSH2 0xE43 DUP3 PUSH2 0x8FC JUMP JUMPDEST SWAP2 POP PUSH2 0xE4E DUP4 PUSH2 0x8FC JUMP JUMPDEST SWAP3 POP DUP3 PUSH2 0xE5E JUMPI PUSH2 0xE5D PUSH2 0xDDA JUMP JUMPDEST JUMPDEST DUP3 DUP3 DIV SWAP1 POP SWAP3 SWAP2 POP POP JUMP JUMPDEST PUSH32 0x4E487B7100000000000000000000000000000000000000000000000000000000 PUSH1 0x0 MSTORE PUSH1 0x22 PUSH1 0x4 MSTORE PUSH1 0x24 PUSH1 0x0 REVERT JUMPDEST PUSH1 0x0 PUSH1 0x2 DUP3 DIV SWAP1 POP PUSH1 0x1 DUP3 AND DUP1 PUSH2 0xEB0 JUMPI PUSH1 0x7F DUP3 AND SWAP2 POP JUMPDEST PUSH1 0x20 DUP3 LT DUP2 SUB PUSH2 0xEC3 JUMPI PUSH2 0xEC2 PUSH2 0xE69 JUMP JUMPDEST JUMPDEST POP SWAP2 SWAP1 POP JUMP JUMPDEST PUSH1 0x0 PUSH2 0xED4 DUP3 PUSH2 0x8FC JUMP JUMPDEST SWAP2 POP PUSH32 0xFFFFFFFFFFFFFFFFFFFFFFFFFFFFFFFFFFFFFFFFFFFFFFFFFFFFFFFFFFFFFFFF DUP3 SUB PUSH2 0xF06 JUMPI PUSH2 0xF05 PUSH2 0xE09 JUMP JUMPDEST JUMPDEST PUSH1 0x1 DUP3 ADD SWAP1 POP SWAP2 SWAP1 POP JUMP INVALID LOG2 PUSH5 0x6970667358 0x22 SLT KECCAK256 JUMPDEST SWAP15 RETURNDATASIZE CALLVALUE NUMBER 0xB8 0xB2 PUSH15 0x5012B1FFDF3150E69BA3AD9466DED1 DUP1 MSIZE 0xD3 0xEB 0xD8 SWAP6 0xBA 0xDA DUP6 PUSH5 0x736F6C6343 STOP ADDMOD 0xD STOP CALLER "
    },
    "gasEstimates": {
      "creation": {
        "codeDepositCost": "782200",
        "executionCost": "infinite",
        "totalCost": "infinite"
      },
      "external": {
        "approveRequest(uint256)": "infinite",
        "approvers(address)": "2868",
        "approversCount()": "2451",
        "contribute()": "51043",
        "createRequest(string,uint256,address)": "infinite",
        "finalizeRequest(uint256)": "infinite",
        "getRequestsCount()": "2490",
        "getSummary()": "infinite",
        "manager()": "2603",
        "minimumContribution()": "2495",
        "requests(uint256)": "infinite"
      }
    },
    "methodIdentifiers": {
      "approveRequest(uint256)": "d7d1bbdb",
      "approvers(address)": "0a144391",
      "approversCount()": "82fde093",
      "contribute()": "d7bb99ba",
      "createRequest(string,uint256,address)": "8a9cfd55",
      "finalizeRequest(uint256)": "03441006",
      "getRequestsCount()": "3410452a",
      "getSummary()": "4051ddac",
      "manager()": "481c6a75",
      "minimumContribution()": "937e09b1",
      "requests(uint256)": "81d12c58"
    }
  },
  "storageLayout": {
    "storage": [
      {
        "astId": 59,
        "contract": "Campaign.sol:Campaign",
        "label": "requests",
        "offset": 0,
        "slot": "0",
        "type": "t_array(t_struct(Request)55_storage)dyn_storage"
      },
      {
        "astId": 61,
        "contract": "Campaign.sol:Campaign",
        "label": "manager",
        "offset": 0,
        "slot": "1",
        "type": "t_address"
      },
      {
        "astId": 63,
        "contract": "Campaign.sol:Campaign",
        "label": "minimumContribution",
        "offset": 0,
        "slot": "2",
        "type": "t_uint256"
      },
      {
        "astId": 67,
        "contract": "Campaign.sol:Campaign",
        "label": "approvers",
        "offset": 0,
        "slot": "3",
        "type": "t_mapping(t_address,t_bool)"
      },
      {
        "astId": 69,
        "contract": "Campaign.sol:Campaign",
        "label": "approversCount",
        "offset": 0,
        "slot": "4",
        "type": "t_uint256"
      }
    ],
    "types": {
      "t_address": {
        "encoding": "inplace",
        "label": "address",
        "numberOfBytes": "20"
      },
      "t_address_payable": {
        "encoding": "inplace",
        "label": "address payable",
        "numberOfBytes": "20"
      },
      "t_array(t_struct(Request)55_storage)dyn_storage": {
        "base": "t_struct(Request)55_storage",
        "encoding": "dynamic_array",
        "label": "struct Campaign.Request[]",
        "numberOfBytes": "32"
      },
      "t_bool": {
        "encoding": "inplace",
        "label": "bool",
        "numberOfBytes": "1"
      },
      "t_mapping(t_address,t_bool)": {
        "encoding": "mapping",
        "key": "t_address",
        "label": "mapping(address => bool)",
        "numberOfBytes": "32",
        "value": "t_bool"
      },
      "t_string_storage": {
        "encoding": "bytes",
        "label": "string",
        "numberOfBytes": "32"
      },
      "t_struct(Request)55_storage": {
        "encoding": "inplace",
        "label": "struct Campaign.Request",
        "members": [
          {
            "astId": 42,
            "contract": "Campaign.sol:Campaign",
            "label": "description",
            "offset": 0,
            "slot": "0",
            "type": "t_string_storage"
          },
          {
            "astId": 44,
            "contract": "Campaign.sol:Campaign",
            "label": "value",
            "offset": 0,
            "slot": "1",
            "type": "t_uint256"
          },
          {
            "astId": 46,
            "contract": "Campaign.sol:Campaign",
            "label": "recipient",
            "offset": 0,
            "slot": "2",
            "type": "t_address_payable"
          },
          {
            "astId": 48,
            "contract": "Campaign.sol:Campaign",
            "label": "complete",
            "offset": 20,
            "slot": "2",
            "type": "t_bool"
          },
          {
            "astId": 50,
            "contract": "Campaign.sol:Campaign",
            "label": "approvalCount",
            "offset": 0,
            "slot": "3",
            "type": "t_uint256"
          },
          {
            "astId": 54,
            "contract": "Campaign.sol:Campaign",
            "label": "approvals",
            "offset": 0,
            "slot": "4",
            "type": "t_mapping(t_address,t_bool)"
          }
        ],
        "numberOfBytes": "160"
      },
      "t_uint256": {
        "encoding": "inplace",
        "label": "uint256",
        "numberOfBytes": "32"
      }
    }
  },
  "userdoc": {
    "kind": "user",
    "methods": {},
    "version": 1
  }
}